:100000000B308A00922B00000A108A100A110B3E56
:1000100003188A0A820000340034003400340034AB
:10002000003400345F3400340034003403340034CE
:100030000334003414343E3414343E341434243441
:100040002A347F342A341234433433340834663447
:100050006134363449345534223450340034053454
:1000600003340034003400341C342234413400346E
:100070000034413422341C340034143408343E3407
:1000800008341434083408343E3408340834003456
:100090005034303400340034083408340834083420
:1000A00008340034603460340034003420341034B8
:1000B0000834043402343E345134493445343E3437
:1000C000043402347F340034003442346134513417
:1000D00049344634223441344934493436341834AE
:1000E000143412347F3410342734453445344534C5
:1000F00039343E34493449344934323401340134DA
:100100007134093407343634493449344934363487
:1001100026344934493449343E3400343634363494
:10012000003400340034563436340034003408349B
:100130001434223441340034143414341434143458
:100140001434003441342234143408340234013479
:100150005134093406343E344134593455345E3414
:100160007E340934093409347E347F3449344934C7
:10017000493436343E3441344134413422347F34BE
:100180004134413441343E347F3449344934493474
:1001900041347F3409340934093401343E34413464
:1001A000413449343A347F340834083408347F34D5
:1001B000003441347F3441340034303440344034EE
:1001C00040343F347F3408341434223441347F3493
:1001D00040344034403440347F3402340C340234F0
:1001E0007F347F340234043408347F343E34413465
:1001F000413441343E347F340934093409340634FF
:100200001E342134213421345E347F3409340934DE
:10021000093476340A148A100A11820726344934C4
:10022000493449343234013401347F3401340134E7
:100230003F344034403440343F341F342034403461
:1002400020341F347F342034103420347F34413440
:1002500022341C34223441340734083470340834D6
:1002600007346134513449344534433400347F34E5
:10027000413400340034023404340834103420345F
:100280000034003441347F34003404340234013407
:100290000234043440344034403440344034003478
:1002A000013402340434003420345434543454348B
:1002B00078347F3444344434443438343834443427
:1002C00044344434443438344434443444347F343F
:1002D00038345434543454341834043404347E34AC
:1002E0000534053408345434543454343C347F34A5
:1002F0000834043404347834003444347D344034D5
:1003000000342034403444343D3400347F341034DD
:10031000283444340034003441347F3440340034D1
:100320007C3404347834043478347C340834043431
:1003300004347834383444344434443438347C34E9
:100340001434143414340834083414341434143485
:100350007C3400347C340834043404344834543459
:10036000543454342034043404343F344434443456
:100370003C344034403420347C341C342034403409
:1003800020341C343C344034303440343C34443425
:1003900028341034283444340C345034503450341D
:1003A0003C344434643454344C34443400340834DD
:1003B000363441344134003400347F340034003466
:1003C00041344134363408340034023401340234C8
:1003D000043402340A148A100A1182073C3420348F
:1003E000453441345334593420343E3400340A14F3
:1003F0008A100A11FE3E03188A0A82003C34203417
:100400004D3445344434493455344D3420343E342D
:1004100000340A108A140A1182073C34203448340C
:1004200041345234443420343E34003483160317AC
:100430001808303C031D232A0313061083120614E8
:10044000272A831603170313861083128614831634
:1004500006128312061283168801031719088312E5
:100460000313880083168612831286160230F70063
:10047000F70B382A00008316861283128612831621
:100480000610831206108316861083128610080049
:10049000F701F80183160317120803101318F70762
:1004A000F70CF80C9318F707F70CF80C1319F7076B
:1004B000F70CF80C9319F707F70CF80C131AF70759
:1004C000F70CF80C931AF707F70CF80C131BF70747
:1004D000F70CF80C931BF707F70CF80C83120313B7
:1004E00008000317CA014A08073C031CE82A8316C0
:1004F0000313061183120611303083160317980078
:1005000040309900831203131622313083160317EB
:1005100098004030990083120313162203174A08EB
:10052000B838CC0030308316980083124C088316FC
:10053000990083120313162203174A08B838CC0017
:1005400031308316980083124C0883169900831269
:100550000313162283160611831206150317CB0107
:100560004B083F3C031CE62AFF308316920083129F
:10057000490883169300831203134822780803174F
:10058000CC0030308316980083124C0883169900F3
:10059000831203131622FF3083160317920083126F
:1005A000490883169300831203134822780803171F
:1005B000CC0031308316980083124C0883169900C2
:1005C0008312031316220317CB0AB02ACA0A732A0E
:1005D00003130800261026088316870083120714C9
:1005E0008316861283128612831606108312061053
:1005F0008316861083128610831606118312061145
:100600003030831603179800C0309900831203130B
:1006100016223130831603179800C03099008312D8
:1006200003131622303083160317980040309900C8
:1006300083120313162231308316031798004030BB
:100640009900831203131622303083160317980083
:10065000B830990083120313162231308316031722
:100660009800B83099008312031316220317350B34
:100670004C2B3030831698003F30990083120313BF
:10068000162231308316031798003F3099008312E9
:10069000031316225D2B03173030831698003E306B
:1006A0009900831203131622313083160317980022
:1006B0003E3099008312031316220317C901031356
:1006C00071228A150A12052C523084008317000803
:1006D0000319782B0530F800F701F70B6D2BF80B99
:1006E0006C2B2E30F700F70B732B762B800B6A2BBD
:1006F0000800303083160317960012083F3C031899
:10070000852B40309202313096000313061183127C
:100710000611831603179213121716089800120871
:10072000990083120313162283160317130CF70084
:10073000F70CF70C1F30F7057708BF39B83897006A
:1007400016089800170899008312031316228316BF
:10075000061183120615831603171608970017084B
:10076000303C031DBA2B0313061083120614BE2B54
:10077000831603170313861083128614FF30831623
:1007800088000612831206168316861283128616B6
:100790000230F700F70BCA2B000083168612831273
:1007A00086120230F700F70BD32B00008316861257
:1007B000831286160230F700F70BDC2B0000FF30A7
:1007C0008316880083120808831603179800031302
:1007D0008612831286128316061083120610831661
:1007E000861083128610831603171808F8007808FD
:1007F0009500140B0B2C1308073997000130F700F4
:100800001708F8000319082C0310F70DF80B042C37
:10081000770895041B2C1308073997000130F7005F
:100820001708F8000319182C0310F70DF80B142CF7
:100830007708FF3A950503130611831206118316F4
:100840000317160898001208990083120313162242
:1008500083160611831206158316031716089800CF
:100860001508990083120313162208000317E301E9
:1008700063085F07840083136018831780080319D7
:100880002D2D63085F078400831360188317000809
:10089000523C031C742C63085F07840083136018A8
:1008A00083172030000283169100920005309300D8
:1008B0008312031348227808831603179000F80068
:1008C0000530F7006830840083177808831203131B
:1008D00004208000F80A840AF70B6F2C722C831610
:1008E0000317652CAD2C031763085F07840083137F
:1008F0006018831700087E3C031CA72C63085F0761
:10090000840083136018831753300002831691000C
:10091000920005309300831203134822780883164F
:1009200003179000F8000530F70068308400831743
:100930007808831203130A218000F80A840AF70B4F
:10094000A22CA52C83160317982CAD2C0317E801B5
:10095000E901EA01EB01EC010313053083160317EB
:1009600092008312610883169300831203134822B6
:10097000780803175D077F3C0318CD2CDD01073095
:100980008316920083126108831693008312031367
:100990004822013078070317DE07E4016408043CAD
:1009A000031C2A2DE501073083169200831261088B
:1009B00083169300831203134822780803176502F5
:1009C0000318262D683064078400831700088316F7
:1009D0009000F70083126508F8000319F32C031048
:1009E000F70CF80BEF2C771C242DE601610866024A
:1009F0000318242DE701610867020318222D6708F8
:100A00005D07831690008312650883169200831297
:100A10006108831693008312031348227808031792
:100A20005E07660783169100100892001108930074
:100A30008312620883169400831203137923031729
:100A4000E70AFB2CE60AF62CE50AD32CE40A610837
:100A5000DD07CE2CE30ADD0A382C031308005330DF
:100A60000317B5004530B6005230B7005030B8001B
:100A70004530B9004E30BA005430BB004930BC009C
:100A8000BD015330BE004E30BF004130C0004B307E
:100A9000C1004530C2002030C3004730C40041309F
:100AA000C5004D30C6004530C700C801C901031359
:100AB000712228300317DD001630DE000130E0001F
:100AC0003530DF000130E100E2000313362422302C
:100AD0000317DD00DE000130E0003E30DF000130B2
:100AE000E100E2000313362408300317C900FA308E
:100AF000D200031364230317C90B772D03138A1540
:100B00000A121D2C0317B50135083F3C031CA32D09
:100B1000B60136087F3C031C9C2D360883169200D4
:100B20008312350883169300013094008312031357
:100B300079230317B60A892D0530D20003136423E5
:100B40000317B50A842D031308000317D9015908A8
:100B50007F3C031CC12D1E30DA005A082A3C031CBE
:100B6000BF2D59088316920083125A0883169300EA
:100B700094018312031379230317DA0AAD2DD90ADE
:100B8000A72D4808003A03130319CD2D013A031984
:100B9000E22D033A0319F72D0B2E0317DD01DE01B9
:100BA0004930840083175D0884075E080313EA2137
:100BB000800000380319E12D0317DE0ADD0AD02D6D
:100BC00003130B2E0317DD01DE0149308400831768
:100BD0005D0884075E080313F721800000380319BD
:100BE000F62D0317DE0ADD0AE52D03130B2E03177E
:100BF000DD01DE014930840083175D0884075E084B
:100C0000031309228000003803190B2E0317DE0A94
:100C1000DD0AFA2D031301300317DE004930DD0031
:100C20005E08E0005D08DF006008FA005F088400ED
:100C300083137A18831780080319222EDF0A0319F9
:100C4000E00A142E5D085F02F7006008FA005E08F3
:100C5000031C5E0FFA027708F8007808DB008316A1
:100C60009200063093008312031348227808803CD8
:100C7000F7000310770C0317DC005C08DD00203060
:100C8000DE000130E0004930DF000130E100E20029
:100C900003133624080010300317D600F701FA01B9
:100CA000D30CD20C031C5A2E5408F7070318FA0A67
:100CB0005508FA07FA0CF70CF90CF80CD60B502E65
:100CC00003130800F801F901F701FA0103175708A7
:100CD000031D6D2E56080319872E1030D8000310FF
:100CE000D40DD50DF70DFA0D57087A02031D7A2E93
:100CF00056087702031C832E5608F702031CFA03DA
:100D00005708FA020314F80DF90DD80B6F2E0313D0
:100D100008000317D3014F08D2000330D500E83094
:100D2000D40003134B2679080317D3007808D200A8
:100D30005308D5005208D4000730D700D030D60071
:100D40000313622678080317D000D101500851021E
:100D50000318C02E831603138611831286110130E7
:100D60000317D2000313642383168611831286159A
:100D700001300317D200031364230317D10AA62EF0
:100D80008316031386118312861508006430031737
:100D9000CF0003138926080053300317B5004530F0
:100DA000B6004C30B7004530B8004330B90054307D
:100DB000BA002030BB004430BC004930BD00463092
:100DC000BE00BF004930C0004330C1005530C200F2
:100DD0004C30C3005430C4005930C500C601C901AD
:100DE000031371220D300317DD001230DE000130D5
:100DF000E0003530DF000130E100E200031336246B
:100E000071080317C8000313A52503174710C7105F
:100E1000471103132616260883168700831203172B
:100E2000C7110313071E172F0317C7150313A615A2
:100E30002608831687008312031747120313871DA2
:100E4000242F031747160313A616260883168700B8
:100E500083120317C7120313871E312F0317C716F8
:100E600003130317471E412FC718412F7108013C78
:100E7000031C412FF10A7108C8000313A525C626DB
:100E80000317C71D4F2F47184F2FF10803194F2F76
:100E9000F1037108C8000313A525C6260317C71E52
:100EA000792F4719792F7108003A031303195F2F1F
:100EB000013A0319642F033A0319692F6D2FFC308F
:100EC00072050338F2006D2FFC3072050238F20013
:100ED0006D2FFC3072050138F200C6260230031770
:100EE000C8009630D200031364230317C80B712F78
:100EF000882F4710C7194714C710471AC71447113E
:100F0000C71A47153230D200031364230A2F031780
:100F100003138A150A12232C0317B50135080A3C5E
:100F2000031CAD2F35088316920006309300831200
:100F30000313482278080317B6003608B900BA012F
:100F40003608BB003C30BC000130BD008A150313DD
:100F500000208A110317B50A8E2FB70137080A3C03
:100F6000031CCD2F3708831692000630930083129E
:100F70000313482278080317B800B9013808BA00EB
:100F80003C30BB003808BC000130BD008A1503139B
:100F900000208A110317B70AAE2F03130800E830A8
:100FA0000317CF0003138926C8300317D200031399
:100FB0006423E8300317CF0003138926C8300317D2
:100FC000D20003136423BC300317CF000313892618
:0C0FD000C8300317D2000313642308008C
:10100000031739083B02C7004708C71F09284708CC
:10101000003CC2003A083C02C7004708C71F12281C
:101020004708003CC3003908BE003A08BF00390831
:101030003B0203181E28FF30C00020280130C000EA
:101040003A083C0203182728FF30C1002928013044
:10105000C1004308803AF7004208803A770203193A
:1010600033280318AB2802308316920083124308FA
:10107000831693008A118312031348228A150317DB
:1010800042087802FA01F700F71BFA03C4007A0855
:10109000C500C601C21BAA2846084202031CAA2892
:1010A0003E088316920083123F0883169300831232
:1010B0003D08831694008A118312031379238A153D
:1010C0000317C51F7D280230831692008312430840
:1010D000831693008A118312031348228A15780815
:1010E000FA01F700F71BFA030317C4077A0803187D
:1010F0007A0FC5074008BE07A82802308316920061
:1011000083124308831693008A1183120313482223
:101110008A1578080317C7000230831692008312DD
:101120004208831693008A118312031348228A15FA
:10113000780803174702FA01F700F71BFA03C40700
:101140007A0803187A0FC5074008BE074108BF0791
:10115000C60A4A28222902308316920083124208C6
:10116000831693008A118312031348228A150317EA
:1011700043087802FA01F700F71BFA03C4007A0863
:10118000C500C601C31B222946084302031C2229AD
:101190003E088316920083123F0883169300831241
:1011A0003D08831694008A118312031379238A154C
:1011B0000317C51FF52802308316920083124208D8
:1011C000831693008A118312031348228A15780824
:1011D000FA01F700F71BFA030317C4077A0803188C
:1011E0007A0FC5074108BF072029023083169200F5
:1011F00083124208831693008A1183120313482234
:101200008A1578080317C7000230831692008312EC
:101210004308831693008A118312031348228A1508
:10122000780803174702FA01F700F71BFA03C4070F
:101230007A0803187A0FC5074008BE074108BF07A0
:10124000C60AC2280313080041300317B500350849
:101250007C3C031C4229B6013608133C031C402980
:101260003508831692008312360883169300940182
:101270008A118312031379238A150317B60A2C29BE
:10128000B50A27294130DD00DE01E001E030DF0052
:101290000130E100E2008A11031336248A1541303F
:1012A0000317DD000A30DE000130E0001030DF00FF
:1012B0000130E100E2008A11031336248A15080088
:1012C00025080317BA00031324080317B9000313F2
:1012D00023080317B800031322080317B70041308F
:1012E000BE00C630BD004E30BC006D30BB002030AB
:1012F000C300BF01C001C101C2013A08FA003908A8
:10130000F9003808F8003708F7000310771C962911
:101310003B08BF073C0803183C0FC0073D080318F3
:101320003D0FC1073E0803183E0FC207C20CC10C97
:10133000C00CBF0CFA0CF90CF80CF70CC30B852988
:101340007A08BA007908B9007808B8007708B700B9
:10135000393037070313A200031738080313A3001B
:10136000303003183130A307031739080313A400E2
:10137000003003180130A40703173A080313A5002F
:10138000003003180130A5072408F7002508F800ED
:10139000F901FA0125080317B9007708B8003908E0
:1013A000D5003808D4007F30D700FF30D6008A112E
:1013B000031362268A157708F8007A08F9000800F6
:1013C0000317B71BF029B71BE9293708093C031C91
:1013D000F029B81BF029B81BF1293808093C031C77
:1013E000322A370883169200063093008A1183123E
:1013F000031348228A15013078070317BA0038080A
:1014000083169200063093008A1183120313482238
:101410008A15013078070317BB00BC013C08043C67
:10142000031C322ABD013D08043C031C302A3C0841
:101430003A07BE003D083B07BF003E0883169200F6
:1014400083123F0883169300831239088316940091
:101450008A118312031379238A150317BD0A132AED
:10146000BC0A0E2A031308000317B501B508031DB3
:101470009B2A0313602179080317B8007808B70086
:101480003808D5003708D400D7010A30D6008A11B1
:10149000031362268A157708E8006021790803178C
:1014A000B8007808B7003808D5003708D400D7014D
:1014B0000A30D6008A11031362268A157708E900DC
:1014C00001300317B500B60103136A08031736028B
:1014D00003189A2A36081F3C031C742A2730360743
:1014E0008400831300087A2A20303602A03E84004C
:1014F0008313000803136802031D972A0317360895
:101500001F3C031C892A47303607840083130008D8
:101510008F2A20303602C03E840083130008031354
:101520006902031D972A0317B5019A2A03130317AB
:10153000B60A642A362A031368080317B700031390
:1015400069080317B8000130B9000313E02108004F
:101550008A11CF278A158A11CF278A150530EA000C
:10156000EB010230EC00ED0130308316E700E800BB
:1015700002308312E7000317C9018A110313712295
:101580008A1519300317DD001E30DE000130E0003F
:101590001A30DF000130E100E2008A110313362423
:1015A0008A1506300317B500FA30D2008A110313EA
:1015B00064238A150317B50BD42A8A1103138225D5
:1015C0008A150317C9018A11031371228A158A111A
:1015D0008C278A15080064300317B5009630B600D2
:1015E0006430B7009630B8006430B9009630BA0065
:1015F0006430BB009630BC00BD006430BE00963045
:10160000BF006430C0003230C1006430C20082309C
:10161000C3003230C4006430C5003230C6008230AE
:10162000C7006430C8003230C9008230CA0064305C
:10163000CB00CC01CD014D080B3C031C392B3530C0
:101640004D07840083170008CE00CF008A110313D2
:1016500089268A15413003174D0784008317000837
:10166000CE00D2008A11031364238A150317CD0A12
:101670001B2B03130800EB22EB220317C9018A116D
:10168000031371228A1523300317DD00DE000130B9
:10169000E0002830DF000130E100E2008A1103138E
:1016A00036248A150A300317B500FA30D2008A11A1
:1016B000031364238A150317B50B552B8A110313E3
:1016C00082258A150317C9018A11031371228A150D
:1016D0008A118C278A150530EA00EB010230EC00F4
:1016E000ED0130308316E700E80002308312E70096
:1016F0008A150A12592E03173608F8013502031805
:10170000842B3508F700902BF7010830B700B50D92
:10171000F70D360877020318F700F80DB70B872B83
:101720000313080003081F398300FF30A6000230AE
:10173000E7004030EA00EB010230EC00ED01EE0181
:101740007014F10183161F149F141F159F11073089
:101750009C0083138312A001A10153308316E00083
:101760006330E1006F30E2007230E3006530E40086
:101770003A30E5002030E6003030E700E800E901CB
:10178000423083120317900065309100733092004D
:10179000743093003A309400203095003030960039
:1017A0009700980147309A0041309B004D309C00D3
:1017B00045309D004F309E0056309F004530A000C0
:1017C0005230A1002030A2002130A300A400A500C7
:1017D000A6015930A8004F30A9005530AA0020308A
:1017E000AB005730AC004F30AD004E30AE00213072
:1017F000AF00B001831603138611831286150130E2
:101800000317B5008A110313EA2A8A150317C901C1
:101810008A11031371228A1502300317B500FA30BA
:10182000D2008A11031364238A150317B50B0F2CFA
:10183000701C262C8A1103132F2D8A158A118225DC
:101840008A158A11CC2E8A1570100317C9018A11C6
:10185000031371228A158A118C278A1524213422B8
:10186000EF016A086F0203188B2C6F081F3C031CE2
:10187000412C27306F07840083136F086B028000B0
:10188000492C20306F02A03E840083136F086B0246
:1018900080006F081F3C031C552C47306F078400E5
:1018A00083136C0880006C085C2C20306F02C03EF3
:1018B000840083136C0880006F081F3C031C662C97
:1018C00027306F078400831300086C2C20306F02D0
:1018D000A03E8400831300080317B50003136F08AC
:1018E0001F3C031C792C47306F07840083130008CA
:1018F0007F2C20306F02C03E840083130008031742
:10190000B6003508B7003608B8000130B900031337
:10191000E021EF0A312CA6152608831687008312D2
:10192000871D9A2CE70803199A2C0330E7008A11C7
:10193000C6268A1526152608831687008312071DDA
:10194000A92C670BA42CA92C0230E7008A11C6260B
:101950008A15A6142608831687008312871CB92CC3
:101960006708023C0319B92C0130E7008A11C6262A
:101970008A1526162608831687008312071EC82C90
:101980006708033C0319C82CE7018A11C6268A158B
:10199000A6162608831687008312871ED32CA8223A
:1019A0000317182C03136708FC3E03180A2D043E86
:1019B0008B2FEB08031DE12CA8220317182CE32C16
:1019C0000313EB03031703130A2DEC08031DED2C7F
:1019D000A8220317182CEF2C0313EC03031703138F
:1019E0000A2D6C08093C031DFA2CA8220317182C99
:1019F000FC2C0313EC0A031703130A2D6B08093C94
:101A0000031D072DA8220317182C092D0313EB0A19
:101A10000317031327080317B1000313470803171D
:101A2000B2000313EF0101306A026F020318CC2DDC
:101A30006F081F3C031C472D27306F07F800FA0181
:101A40000318FA0A78080317B5007A08B6000130BF
:101A500003136F071F3C031C342D01306F07273E13
:101A60008400831300083B2D01306F07E03EA03E49
:101A70008400831300080317B7003508840083131C
:101A800036188317370880003708702D031320306D
:101A90006F02A03EF800FA010318FA0A780803174B
:101AA000B7007A08B800013003136F071F3C031C0E
:101AB000602D01306F07273E840083130008672DD7
:101AC00001306F07E03EA03E840083130008031737
:101AD000B500370884008313381883173508800051
:101AE00003136F081F3C031CA02D47306F07F8003D
:101AF000FA010318FA0A78080317B5007A08B60045
:101B0000013003136F071F3C031C8D2D01306F073D
:101B1000473E840083130008942D01306F07E03E98
:101B2000C03E8400831300080317B7003508840003
:101B3000831336188317370880003708C92D03131D
:101B400020306F02C03EF800FA010318FA0A780844
:101B50000317B7007A08B800013003136F071F3C62
:101B6000031CB92D01306F07473E84008313000822
:101B7000C02D01306F07E03EC03E84008313000893
:101B80000317B50037088400831338188317350806
:101B900080000313EF0A132D01306A021F3C031C5F
:101BA000DA2D01306A02273E840083136B0880001F
:101BB0006B08E22D01306A02E03EA03E84008313F0
:101BC0006B08800001306A021F3C031CF02D0130BD
:101BD0006A02473E840083136C0880006C08F82D6D
:101BE00001306A02E03EC03E840083136C0880002E
:101BF000EF0101306A026F0203182A2E6F081F3CA2
:101C0000031C082E27306F078400831300080E2E54
:101C100020306F02A03E8400831300086B02031D76
:101C2000282E6F081F3C031C1B2E47306F078400B3
:101C300083130008212E20306F02C03E84008313DE
:101C400000086C02031D282EA8220317182C03136A
:101C5000EF0AF92D6B080317B70003136C0803177D
:101C6000B8000130B9000313E02103173108B700B1
:101C70003208B800B9010313E02168086B02031DA4
:101C8000612F69086C02031D612F64300317CF00B8
:101C90008A11031389268A1527080317B300031333
:101CA00047080317B40003136A083F3C03185C2E6F
:101CB0003B2B0317182C0313EA0A01306A02EF00CA
:101CC000EF080319172F6F081F3C031C922E2730B3
:101CD0006F07F800FA010318FA0A78080317B5002D
:101CE0007A08B600013003136F021F3C031C7F2EDD
:101CF00001306F02273E840083130008862E0130D6
:101D00006F02E03EA03E8400831300080317B70073
:101D10003508840083133618831737088000370886
:101D2000BB2E031320306F02A03EF800FA01031807
:101D3000FA0A78080317B7007A08B80001300313CD
:101D40006F021F3C031CAB2E01306F02273E840044
:101D500083130008B22E01306F02E03EA03E8400E3
:101D6000831300080317B50037088400831338185D
:101D700083173508800003136F081F3C031CEB2EEC
:101D800047306F07F800FA010318FA0A78080317BA
:101D9000B5007A08B600013003136F021F3C031C24
:101DA000D82E01306F02473E840083130008DF2ED7
:101DB00001306F02E03EC03E840083130008031729
:101DC000B70035088400831336188317370880005E
:101DD0003708142F031320306F02C03EF800FA01B9
:101DE0000318FA0A78080317B7007A08B800013018
:101DF00003136F021F3C031C042F01306F02473E88
:101E00008400831300080B2F01306F02E03EC03EB8
:101E10008400831300080317B50037088400831378
:101E200038188317350880000313EF03602E03175B
:101E300033080313A700031734080313C70003175D
:101E40003308B7003408B8000130B9000313E021AB
:101E50003422ED0A6D080317B5000A30B6000313EB
:101E60007B237808303E8316E70083126D08031742
:101E7000B5000A30B60003137B237708303E831683
:101E8000E80083126D086E020318602F6D08EE00E3
:101E90006E080317B5000A30B60003137B237808D9
:101EA000303E0317970003136E080317B5000A307E
:101EB000B60003137B237708303E03179800031303
:101EC0002421720803390317B600D3013608D20063
:101ED0000130D5002C30D4008A1103134B268A150B
:101EE00079080317B6007808B5003608B700B70AB6
:101EF000B7030319832FFF30D2008A110313642321
:101F00008A150317782F3508D2008A11031364232A
:101F10008A158B2C63000A148A140A158207D92C9F
:061F2000E52CF12CFE2C63
:02400E00723FFF
:00000001FF
;PIC16F877A
;CRC=C0DB  CREATED="01-Haz-25 23:36"
