:100000000B308A00162B00000A108A100A110B3ED2
:1000100003188A0A820000340034003400340034AB
:10002000003400345F3400340034003403340034CE
:100030000334003414343E3414343E341434243441
:100040002A347F342A341234433433340834663447
:100050006134363449345534223450340034053454
:1000600003340034003400341C342234413400346E
:100070000034413422341C340034143408343E3407
:1000800008341434083408343E3408340834003456
:100090005034303400340034083408340834083420
:1000A00008340034603460340034003420341034B8
:1000B0000834043402343E345134493445343E3437
:1000C000043402347F340034003442346134513417
:1000D00049344634223441344934493436341834AE
:1000E000143412347F3410342734453445344534C5
:1000F00039343E34493449344934323401340134DA
:100100007134093407343634493449344934363487
:1001100026344934493449343E3400343634363494
:10012000003400340034563436340034003408349B
:100130001434223441340034143414341434143458
:100140001434003441342234143408340234013479
:100150005134093406343E344134593455345E3414
:100160007E340934093409347E347F3449344934C7
:10017000493436343E3441344134413422347F34BE
:100180004134413441343E347F3449344934493474
:1001900041347F3409340934093401343E34413464
:1001A000413449343A347F340834083408347F34D5
:1001B000003441347F3441340034303440344034EE
:1001C00040343F347F3408341434223441347F3493
:1001D00040344034403440347F3402340C340234F0
:1001E0007F347F340234043408347F343E34413465
:1001F000413441343E347F340934093409340634FF
:100200001E342134213421345E347F3409340934DE
:10021000093476340A148A100A11820726344934C4
:10022000493449343234013401347F3401340134E7
:100230003F344034403440343F341F342034403461
:1002400020341F347F342034103420347F34413440
:1002500022341C34223441340734083470340834D6
:1002600007346134513449344534433400347F34E5
:10027000413400340034023404340834103420345F
:100280000034003441347F34003404340234013407
:100290000234043440344034403440344034003478
:1002A000013402340434003420345434543454348B
:1002B00078347F3444344434443438343834443427
:1002C00044344434443438344434443444347F343F
:1002D00038345434543454341834043404347E34AC
:1002E0000534053408345434543454343C347F34A5
:1002F0000834043404347834003444347D344034D5
:1003000000342034403444343D3400347F341034DD
:10031000283444340034003441347F3440340034D1
:100320007C3404347834043478347C340834043431
:1003300004347834383444344434443438347C34E9
:100340001434143414340834083414341434143485
:100350007C3400347C340834043404344834543459
:10036000543454342034043404343F344434443456
:100370003C344034403420347C341C342034403409
:1003800020341C343C344034303440343C34443425
:1003900028341034283444340C345034503450341D
:1003A0003C344434643454344C34443400340834DD
:1003B000363441344134003400347F340034003466
:1003C00041344134363408340034023401340234C8
:1003D000043402340A148A100A1182073C3420348F
:1003E000453441345334593420343E3400340A14F3
:1003F0008A100A11FE3E03188A0A82003C34203417
:100400004D3445344434493455344D3420343E342D
:1004100000340A108A140A1182073C34203448340C
:1004200041345234443420343E34003483160317AC
:100430001308303C031D232A0313061083120614ED
:10044000272A831603170313861083128614831634
:1004500006128312061283168801031714088312EA
:100460000313880083168612831286160230F70063
:10047000F70B382A00008316861283128612831621
:100480000610831206108316861083128610080049
:10049000F701F80103176D0803106E18F707F70C42
:1004A000F80CEE18F707F70CF80C6E19F707F70CB5
:1004B000F80CEE19F707F70CF80C6E1AF707F70CA3
:1004C000F80CEE1AF707F70CF80C6E1BF707F70C91
:1004D000F80CEE1BF707F70CF80C031308000317D2
:1004E000C8014808073C031CDE2A831603130611C3
:1004F00083120611303083160317930040309400A6
:1005000083120313162231308316031793004030F1
:10051000940083120313162203174808B838CA0040
:1005200030308316930083124A0883169400831296
:100530000313162203174808B838CA00313083164F
:10054000930083124A088316940083120313162221
:1005500083160611831206150317C90149083F3C8B
:10056000031CDC2AFF30ED004708EE00031348228D
:1005700078080317CA0030308316930083124A08A4
:1005800083169400831203131622FF300317ED0025
:100590004708EE000313482278080317CA003130D9
:1005A0008316930083124A08831694008312031360
:1005B00016220317C90AAE2AC80A712A03130800B3
:1005C00026102608831687008312071483168612C6
:1005D0008312861283160610831206108316861065
:1005E000831286108316061183120611303083168B
:1005F00003179300C0309400831203131622313086
:10060000831603179300C03094008312031316223D
:100610003030831603179300403094008312031385
:100620001622313083160317930040309400831252
:10063000031316223030831603179300B83094004A
:100640008312031316223130831603179300B83038
:1006500094008312031316220317330B422B3030FE
:10066000831693003F309400831203131622313017
:100670008316031793003F3094008312031316224E
:10068000532B03173030831693003E3094008312AF
:100690000313162231308316031793003E30940063
:1006A0008312031316220317C70103136F228A153F
:1006B0000A128B2B493084008317000803196E2B14
:1006C0000530F800F701F70B632BF80B622B2E3087
:1006D000F700F70B692B6C2B800B602B0800103098
:1006E0000317CD00F701FA01CA0CC90C031C7E2BBD
:1006F0004B08F7070318FA0A4C08FA07FA0CF70C2C
:10070000F90CF80CCD0B742B03130800F801F90158
:10071000F701FA0103174E08031D912B4D08031929
:10072000AB2B1030CF000310CB0DCC0DF70DFA0D15
:100730004E087A02031D9E2B4D087702031CA72B3F
:100740004D08F702031CFA034E08FA020314F80DD1
:10075000F90DCF0B932B031308000317CA014608AA
:10076000C9000330CC00E830CB0003136F237908B5
:100770000317CA007808C9004A08CC004908CB0012
:100780000730CE00D030CD0003138623780803173E
:10079000C700C801470848020318E42B8316031357
:1007A00086118312861101300317C90003135A23DF
:1007B000831686118312861501300317C9000313AF
:1007C0005A230317C80ACA2B8316031386118312F0
:1007D00086150800303083160317910083126D08C8
:1007E0003F3C0318F92B4030ED0231308316910065
:1007F0008312831603130611831206110317ED13D8
:100800006D1783161108930083126D0883169400E8
:1008100083120313162203176E0CF700F70CF70C64
:100820001F30F7057708BF39B838831692001108D2
:1008300093001208940083120313162283160611E4
:100840008312061583160317110892001208303C14
:10085000031D312C0313061083120614352C831646
:1008600003170313861083128614FF308316880043
:10087000061283120616831686128312861602301B
:10088000F700F70B412C00008316861283128612A4
:100890000230F700F70B4A2C0000831686128312F1
:1008A00086160230F700F70B532C0000FF3083163A
:1008B0008800831208088316031793000313861217
:1008C0008312861283160610831206108316861072
:1008D00083128610831603171308F8007808900017
:1008E00083126F0B852C6E08073983169200013036
:1008F000F7001208F8000319812C0310F70DF80B0C
:100900007D2C77089004962C83126E080739831685
:1009100092000130F7001208F8000319932C03101D
:10092000F70DF80B8F2C7708FF3A9005031306118B
:1009300083120611831603171108930083126D08A2
:100940008316940083120313162283160611831252
:1009500006158316031711089300100894008312DC
:100960000313162208000317E10161085D078400E4
:1009700083135E18831780080319882D61085D07AB
:10098000840083135E1883170008523C031CEC2C70
:1009900061085D07840083135E188317203000020E
:1009A000EC00ED000530EE00031348227808031731
:1009B000EB00F8000530F7006630840083177808F4
:1009C000031304208000F80A840AF70BE82CEA2CB1
:1009D0000317DF2C202D031761085D0784008313A4
:1009E0005E18831700087E3C031C1A2D61085D0702
:1009F000840083135E18831753300002EC00ED006F
:100A00000530EE000313482278080317EB00F800C6
:100A10000530F700663084008317780803130A2135
:100A20008000F80A840AF70B162D182D03170D2DD8
:100A3000202D0317E601E701E801E901EA010313AC
:100A400005300317ED005F08EE0003134822780815
:100A500003175B077F3C0318382DDB010730ED00DF
:100A60005F08EE0003134822013078070317DC0704
:100A7000E2016208043C031C852DE3010730ED0010
:100A80005F08EE0003134822780803176302031877
:100A9000812D66306207840083170008EB00F700A1
:100AA0006308F8000319582D0310F70CF80B542DA8
:100AB000771C7F2DE4015F08640203187F2DE50198
:100AC0005F08650203187D2D65085B07EB0063086E
:100AD000ED005F08EE0003134822780803175C0757
:100AE0006407EC006B08ED006C08EE006008EF0096
:100AF0000313EA230317E50A602DE40A5B2DE30ADA
:100B00003E2DE20A5F08DB07392DE10ADB0AB52C2E
:100B10000313080053300317B3004530B4005230BC
:100B2000B5005030B6004530B7004E30B8005430F4
:100B3000B9004930BA00BB015330BC004E30BD0093
:100B40004130BE004B30BF004530C0002030C100F6
:100B50004730C2004130C3004D30C4004530C500AD
:100B6000C601C70103136F2228300317DB001630BC
:100B7000DC000130DE003330DD000130DF00E0005A
:100B80000313B32422300317DB00DC000130DE0046
:100B90003C30DD000130DF00E0000313B3240830F7
:100BA0000317C700FA30C90003135A230317C70BF2
:100BB000D22D03138A150A12A82B0317B301330889
:100BC0003F3C031CFA2DB40134087F3C031CF32D79
:100BD0003408ED003308EE000130EF000313EA2380
:100BE0000317B40AE42D0530C90003135A23031771
:100BF000B30ADF2D031308000317D70157087F3C02
:100C0000031C142E1E30D80058082A3C031C122E38
:100C10005708ED005808EE00EF010313EA2303170D
:100C2000D80A042ED70AFE2D4608003A03130319EA
:100C3000202E013A0319352E033A03194A2E5E2E4F
:100C40000317DB01DC014730840083175B0884074E
:100C50005C080313EA21800000380319342E0317BF
:100C6000DC0ADB0A232E03135E2E0317DB01DC01F3
:100C70004730840083175B0884075C080313F7215F
:100C8000800000380319492E0317DC0ADB0A382ECE
:100C900003135E2E0317DB01DC014730840083174A
:100CA0005B0884075C0803130922800000380319DD
:100CB0005E2E0317DC0ADB0A4D2E031301300317E7
:100CC000DC004730DB005C08DE005B08DD005E080E
:100CD000FA005D08840083137A18831780080319CB
:100CE000752EDD0A0319DE0A672E5B085D02F70028
:100CF0005E08FA005C08031C5C0FFA027708F80033
:100D00007808D900ED000630EE0003134822780879
:100D1000803CF7000310770C0317DA005A08DB0059
:100D20002030DC000130DE004730DD000130DF0024
:100D3000E0000313B324080064300317C600031354
:100D4000AD23080053300317B3004530B4004C30D6
:100D5000B5004530B6004330B7005430B8002030FD
:100D6000B9004430BA004930BB004630BC00BD0079
:100D70004930BE004330BF005530C0004C30C10088
:100D80005430C2005930C300C401C70103136F229D
:100D90000D300317DB001230DC000130DE00333091
:100DA000DD000130DF00E0000313B32471080317F6
:100DB000C6000313FC2503174510C5104511031386
:100DC000261626088316870083120317C5110313FE
:100DD000071EED2E0317C5150313A6152608831647
:100DE00087008312031745120313871DFA2E03177A
:100DF00045160313A61626088316870083120317C9
:100E0000C5120313871E072F0317C51603130317F5
:100E1000451E172FC518172F7108013C031C172FEB
:100E2000F10A7108C6000313FC259C260317C51D93
:100E3000252F4518252FF1080319252FF1037108D7
:100E4000C6000313FC259C260317C51E532F451906
:100E5000532F7108003A03130319352F013A031970
:100E60003A2F033A03193F2F432FFC307205033802
:100E7000F200432FFC3072050238F200432FFC30A1
:100E800072050138F20064300317C6000313AD2366
:100E900002300317C6009630C90003135A23031704
:100EA000C60B4B2F622F4510C5194514C510451AA6
:100EB000C5144511C51A45153230C90003135A230C
:100EC000E02E031703138A150A12AE2B0317B30182
:100ED00033080A3C031C852F3308ED000630EE0072
:100EE0000313482278080317B4003408B700B80188
:100EF0003408B9003C30BA000130BB008A15031336
:100F000000208A110317B30A682FB50135080A3C7F
:100F1000031CA32F3508ED000630EE000313482212
:100F200078080317B600B7013608B8003C30B9009E
:100F30003608BA000130BB008A15031300208A115D
:100F40000317B50A862F0313080041300317B300B7
:100F500033087C3C031CBD2FB4013408133C031C34
:100F6000BB2F3308ED003408EE00EF010313EA2332
:100F70000317B40AAD2FB30AA82F4130DB00DC0100
:100F8000DE01E030DD000130DF00E0000313B324B8
:100F900041300317DB000A30DC000130DE00103086
:100FA000DD000130DF00E0000313B3240800031765
:100FB0003408F80133020318E02F3308F700EC2F50
:100FC000F7010830B500B30DF70D340877020318A8
:0C0FD000F700F80DB50BE32F0313080029
:10100000031737083902C5004508C51F09284508D8
:10101000003CC00038083A02C5004508C51F122828
:101020004508003CC1003708BC003808BD0037083F
:10103000390203181E28FF30BE0020280130BE00F0
:1010400038083A0203182728FF30BF00292801304A
:10105000BF004108803AF7004008803A7702031940
:101060003328031895280230ED004108EE008A115C
:10107000031348228A15031740087802FA01F70083
:10108000F71BFA03C2007A08C300C401C01B9428EE
:1010900044084002031C94283C08ED003D08EE0083
:1010A0003B08EF008A110313EA238A150317C31FB5
:1010B0006F280230ED004108EE008A110313482228
:1010C0008A157808FA01F700F71BFA030317C2071D
:1010D0007A0803187A0FC3073E08BC07922802302B
:1010E000ED004108EE008A11031348228A157808A2
:1010F0000317C5000230ED004008EE008A1103130B
:1011000048228A15780803174502FA01F700F71BF1
:10111000FA03C2077A0803187A0FC3073E08BC0710
:101120003F08BD07C40A4628F6280230ED004008F3
:10113000EE008A11031348228A150317410878022A
:10114000FA01F700F71BFA03C2007A08C300C401D2
:10115000C11BF62844084102031CF6283C08ED0098
:101160003D08EE003B08EF008A110313EA238A15BD
:101170000317C31FD1280230ED004008EE008A118A
:10118000031348228A157808FA01F700F71BFA03BF
:101190000317C2077A0803187A0FC3073F08BD0771
:1011A000F4280230ED004008EE008A1103134822B3
:1011B0008A1578080317C5000230ED004108EE00DB
:1011C0008A11031348228A15780803174502FA0189
:1011D000F700F71BFA03C2077A0803187A0FC30750
:1011E0003E08BC073F08BD07C40AA828031308002F
:1011F00025080317B800031324080317B7000313C7
:1012000023080317B600031322080317B500413063
:10121000BC00C630BB004E30BA006D30B900203083
:10122000C100BD01BE01BF01C0013808FA00370886
:10123000F9003608F8003508F7000310771C2E294E
:101240003908BD073A0803183A0FBE073B080318D0
:101250003B0FBF073C0803183C0FC007C00CBF0C76
:10126000BE0CBD0CFA0CF90CF80CF70CC10B1D29C7
:101270007A08B8007908B7007808B6007708B50092
:10128000393035070313A200031736080313A300F0
:10129000303003183130A307031737080313A400B5
:1012A000003003180130A407031738080313A50002
:1012B000003003180130A5072408F7002508F800BE
:1012C000F901FA0125080317B7007708B6003708B7
:1012D000CC003608CB007F30CE00FF30CD008A1125
:1012E000031386238A157708F8007A08F9000800A6
:1012F0000317B51B8829B51B81293508093C031C38
:101300008829B61B8829B61B89293608093C031C85
:10131000C0293508ED000630EE008A11031348227B
:101320008A15013078070317B8003608ED0006303B
:10133000EE008A11031348228A150130780703173B
:10134000B900BA013A08043C031CC029BB013B08A0
:10135000043C031CBE293A083807BC003B08390787
:10136000BD003C08ED003D08EE003708EF008A1193
:101370000313EA238A150317BB0AA729BA0AA2296D
:10138000031308000317B301B308031D292A03132D
:10139000F82079080317B6007808B5003608CC00A5
:1013A0003508CB00CE010A30CD008A110313862305
:1013B0008A157708E800F82079080317B60078083E
:1013C000B5003608CC003508CB00CE010A30CD0080
:1013D0008A11031386238A157708E9000130031761
:1013E000B300B40103136A08031734020318282A50
:1013F00034081F3C031C022A27303407840083135F
:101400000008082A20303402A03E8400831300081C
:1014100003136802031D252A031734081F3C031C0D
:10142000172A473034078400831300081D2A203010
:101430003402C03E84008313000803136902031DB5
:10144000252A0317B301282A03130317B40AF22924
:10145000C429031368080317B500031369080317A9
:10146000B6000130B700031378210800E8300317F5
:10147000C6008A110313AD238A15C8300317C900AB
:101480008A1103135A238A15E8300317C6008A11FC
:101490000313AD238A15C8300317C9008A1103133B
:1014A0005A238A15BC300317C6008A110313AD23D3
:1014B0008A15C8300317C9008A1103135A238A15E5
:1014C0000530EA00EB010230EC00ED01303083160C
:1014D000E700E80002308312E7000317C7018A1112
:1014E00003136F228A1519300317DB001E30DC004E
:1014F0000130DE001A30DD000130DF00E0008A112B
:101500000313B3248A1506300317B300FA30C90059
:101510008A1103135A238A150317B30B862A8A11DB
:101520000313DD258A150317C7018A1103136F22E0
:101530008A158A1166278A150800C8300317B30078
:101540006430B400B5009030B600C830B7009630B3
:10155000B8005830B9002C30BA003230BB00BC00A3
:101560006430BD009630BE006430BF00C0009630CD
:10157000C100C201C3014308073C031CD92A333010
:101580004307840083170008C400C6008A110313B0
:10159000AD238A153B3003174307840083170008E7
:1015A000C400C9008A1103135A238A150317C30AFA
:1015B000BB2AC7018A1103136F228A152330031730
:1015C000DB00DC000130DE002830DD000130DF0010
:1015D000E0008A110313B3248A150A300317B300FD
:1015E000FA30C9008A1103135A238A150317B30B63
:1015F000F02A8A110313DD258A150317C7018A1102
:1016000003136F228A158A1166278A150530EA00AE
:10161000EB010230EC00ED0130308316E700E8000A
:1016200002308312E7008A150A12CF2D03081F39F2
:101630008300FF30A6000230E7000530EA00EB012E
:101640000230EC00ED01EE017014F10183161F145D
:101650009F141F159F1107309C0083138312A00154
:10166000A10153308316E0006330E1006F30E200E7
:101670007230E3006530E4003A30E5002030E600E7
:101680003030E700E800E901423083120317900090
:101690006530910073309200743093003A309400BA
:1016A00020309500303096009700980147309A001E
:1016B00041309B004D309C0045309D004F309E00D6
:1016C00056309F004530A0005230A1002030A200CB
:1016D0002130A300A400A500A6015930A8004F3076
:1016E000A9005530AA002030AB005730AC004F3075
:1016F000AD004E30AE002130AF00B0010730831690
:101700000313860086118312861501300317B30078
:101710008A110313E02A8A150317C7018A110313DC
:101720006F228A1502300317B300FA30C9008A11FC
:1017300003135A238A150317B30B952B701CB12B77
:101740006430C6008A110313AD238A158A118A2DCD
:101750008A158A11DD258A158A11A22E8A15701024
:101760000317C7018A1103136F228A158A1166278E
:101770008A158A11A5278A15C221EF016A086F020E
:101780000318182C6F081F3C031CCE2B27306F0743
:10179000840083136F086B028000D62B20306F0209
:1017A000A03E840083136F086B0280006F081F3C0B
:1017B000031CE22B47306F07840083136C08800002
:1017C0006C08E92B20306F02C03E840083136C0844
:1017D00080006F081F3C031CF32B27306F07840029
:1017E00083130008F92B20306F02A03E840083137E
:1017F00000080317B30003136F081F3C031C062CDB
:1018000047306F078400831300080C2C20306F02D0
:10181000C03E8400831300080317B4003308B500EA
:101820003408B6000130B70003137821EF0ABE2B4D
:10183000A6152608831687008312871D272CE70824
:101840000319272C0330E7008A119C268A152615D8
:101850002608831687008312071D362C670B312C50
:10186000362C0230E7008A119C268A15A614260819
:10187000831687008312871C462C6708023C0319D5
:10188000462C0130E7008A119C268A152616260868
:10189000831687008312071E552C6708033C031923
:1018A000552CE7018A119C268A15A6162608831650
:1018B00087008312871E602C362203179E2B03138A
:1018C0006708FC3E0318972C043E3F2EEB08031DCF
:1018D0006E2C362203179E2B702C0313EB03031779
:1018E0000313972CEC08031D7A2C362203179E2B2A
:1018F0007C2C0313EC0303170313972C6C08093C8F
:10190000031D872C362203179E2B892C0313EC0A08
:1019100003170313972C6B08093C031D942C3622E4
:1019200003179E2B962C0313EB0A031703132708A8
:101930000317B100031347080317B2000313EF01A5
:1019400001306A026F020318492D6F081F3C031C07
:10195000D02C27306F070317B300B4010318B40A63
:10196000013003136F071F3C031CBD2C01306F07B0
:10197000273E840083130008C42C01306F07E03E2B
:10198000A03E8400831300080317B50033088400C9
:10199000831334188317350880003508F52C03139A
:1019A00020306F02A03E0317B500B6010318B60A37
:1019B000013003136F071F3C031CE52C01306F0738
:1019C000273E840083130008EC2C01306F07E03EB3
:1019D000A03E8400831300080317B3003508840079
:1019E0008313361883173308800003136F081F3CD6
:1019F000031C212D47306F070317B300B4010318F0
:101A0000B40A013003136F071F3C031C0E2D013075
:101A10006F07473E840083130008152D01306F07C0
:101A2000E03EC03E8400831300080317B50033086E
:101A30008400831334188317350880003508462D39
:101A4000031320306F02C03E0317B500B601031820
:101A5000B60A013003136F071F3C031C362D0130FB
:101A60006F07473E8400831300083D2D01306F0748
:101A7000E03EC03E8400831300080317B30035081E
:101A80008400831336188317330880000313EF0A8A
:101A9000A02C01306A021F3C031C572D01306A0242
:101AA000273E840083136B0880006B085F2D013094
:101AB0006A02E03EA03E840083136B088000013080
:101AC0006A021F3C031C6D2D01306A02473E8400F0
:101AD00083136C0880006C08752D01306A02E03EAB
:101AE000C03E840083136C088000EF0101306A025D
:101AF0006F020318A72D6F081F3C031C852D27308C
:101B00006F078400831300088B2D20306F02A03EE6
:101B10008400831300086B02031DA52D6F081F3C72
:101B2000031C982D47306F078400831300089E2DF7
:101B300020306F02C03E8400831300086C02031D36
:101B4000A52D362203179E2B0313EF0A762D6B0863
:101B50000317B50003136C080317B6000130B70074
:101B60000313782103173108B5003208B600B70116
:101B70000313782168086B02031D152E69086C0297
:101B8000031D152E32300317C6008A110313AD232F
:101B90008A15EA0A6A083F3C0318D22D9D2A0317CA
:101BA0009E2B0313C221ED0A6D080317B3000A3000
:101BB000B4008A110313D7278A157808303E83169C
:101BC000E70083126D080317B3000A30B4008A11CE
:101BD0000313D7278A157708303E8316E80083124F
:101BE0006D086E020318122E6D08EE006E080317C2
:101BF000B3000A30B4008A110313D7278A15780876
:101C0000303E0317970003136E080317B3000A3022
:101C1000B4008A110313D7278A157708303E0317BB
:101C2000980003138A11A5278A1572080339031730
:101C3000B400CA013408C9000130CC002C30CB00FC
:101C40008A1103136F238A1579080317B4007808E3
:101C5000B3003408B500B50AB5030319372EFF30B9
:101C6000C9008A1103135A238A1503172C2E33082F
:101C7000C9008A1103135A238A15182C63000A100D
:0E1C80008A140A158207662C722C7E2C8B2C7F
:02400E00723FFF
:00000001FF
;PIC16F877A
;CRC=87E2  CREATED="01-Haz-25 18:27"
