:1000000008308A00EC2800000A108A100A110B3E02
:1000100003188A0A820000340034003400340034AB
:10002000003400345F3400340034003403340034CE
:100030000334003414343E3414343E341434243441
:100040002A347F342A341234433433340834663447
:100050006134363449345534223450340034053454
:1000600003340034003400341C342234413400346E
:100070000034413422341C340034143408343E3407
:1000800008341434083408343E3408340834003456
:100090005034303400340034083408340834083420
:1000A00008340034603460340034003420341034B8
:1000B0000834043402343E345134493445343E3437
:1000C000043402347F340034003442346134513417
:1000D00049344634223441344934493436341834AE
:1000E000143412347F3410342734453445344534C5
:1000F00039343E34493449344934323401340134DA
:100100007134093407343634493449344934363487
:1001100026344934493449343E3400343634363494
:10012000003400340034563436340034003408349B
:100130001434223441340034143414341434143458
:100140001434003441342234143408340234013479
:100150005134093406343E344134593455345E3414
:100160007E340934093409347E347F3449344934C7
:10017000493436343E3441344134413422347F34BE
:100180004134413441343E347F3449344934493474
:1001900041347F3409340934093401343E34413464
:1001A000413449343A347F340834083408347F34D5
:1001B000003441347F3441340034303440344034EE
:1001C00040343F347F3408341434223441347F3493
:1001D00040344034403440347F3402340C340234F0
:1001E0007F347F340234043408347F343E34413465
:1001F000413441343E347F340934093409340634FF
:100200001E342134213421345E347F3409340934DE
:10021000093476340A148A100A11820726344934C4
:10022000493449343234013401347F3401340134E7
:100230003F344034403440343F341F342034403461
:1002400020341F347F342034103420347F34413440
:1002500022341C34223441340734083470340834D6
:1002600007346134513449344534433400347F34E5
:10027000413400340034023404340834103420345F
:100280000034003441347F34003404340234013407
:100290000234043440344034403440344034003478
:1002A000013402340434003420345434543454348B
:1002B00078347F3444344434443438343834443427
:1002C00044344434443438344434443444347F343F
:1002D00038345434543454341834043404347E34AC
:1002E0000534053408345434543454343C347F34A5
:1002F0000834043404347834003444347D344034D5
:1003000000342034403444343D3400347F341034DD
:10031000283444340034003441347F3440340034D1
:100320007C3404347834043478347C340834043431
:1003300004347834383444344434443438347C34E9
:100340001434143414340834083414341434143485
:100350007C3400347C340834043404344834543459
:10036000543454342034043404343F344434443456
:100370003C344034403420347C341C342034403409
:1003800020341C343C344034303440343C34443425
:1003900028341034283444340C345034503450341D
:1003A0003C344434643454344C34443400340834DD
:1003B000363441344134003400347F340034003466
:1003C00041344134363408340034023401340234C8
:1003D00004340234831603175C08303C031DF729EC
:1003E0000313061083120614FB2983160317031345
:1003F0008610831286148316061283120612831641
:10040000880103175D088312031388008316861280
:10041000831286160230F700F70B0C2A00008316B1
:100420008612831286128316061083120610831614
:100430008610831286100800F701F801831603174F
:10044000570803105818F707F70CF80CD818F707D7
:10045000F70CF80C5819F707F70CF80CD819F70730
:10046000F70CF80C581AF707F70CF80CD81AF7071E
:10047000F70CF80C581BF707F70CF80CD81BF7070C
:10048000F70CF80C83120313080083160317C60138
:100490004608073C031CB12A0313061183120611F8
:1004A000303083160317DC004030DD008312031365
:1004B000EA21313083160317DC004030DD0083125F
:1004C0000313EA21831603174608B838C8003030F2
:1004D000DC004808DD0083120313EA2183160317AA
:1004E0004608B838C8003130DC004808DD00831207
:1004F0000313EA21831606118312061583160317C8
:10050000C70147083F3C031CAF2AFF30D70045080E
:10051000D800831203131C22780883160317C8001F
:100520003030DC004808DD0083120313EA21FF307D
:1005300083160317D7004508D800831203131C2223
:10054000780883160317C8003130DC004808DD0046
:1005500083120313EA2183160317C70A812AC60AE6
:10056000482A8312031308002610260883168700E2
:1005700083120714831686128312861283160610BE
:1005800083120610831686108312861083160611B6
:1005900083120611303083160317DC00C030DD00F3
:1005A00083120313EA21313083160317DC00C030B5
:1005B000DD0083120313EA21303083160317DC00B9
:1005C0004030DD0083120313EA2131308316031714
:1005D000DC004030DD0083120313EA213030831643
:1005E0000317DC00B830DD0083120313EA21313039
:1005F00083160317DC00B830DD0083120313EA21F1
:1006000083160317440B172B3030DC003F30DD001E
:1006100083120313EA21313083160317DC003F30C5
:10062000DD0083120313EA21272B831603173030D2
:10063000DC003E30DD0083120313EA2131308316E3
:100640000317DC003E30DD0083120313EA2183161A
:100650000317C5018312031345228A150A126F2955
:10066000C6308400831700080319442B0530F800B6
:10067000F701F70B392BF80B382B2E30F700F70B5F
:100680003F2B422B800B362B08003030831603178C
:10069000DA0056083F3C0318512B4030D602313067
:1006A000DA00031306118312061183160317D613FB
:1006B00056175A08DC005608DD0083120313EA219E
:1006C00083160317570CF700F70CF70C1F30F705CC
:1006D0007708BF39B838DB005A08DC005B08DD005A
:1006E00083120313EA21831606118312061583165B
:1006F00003175A08DB005B08303C031D862B0313ED
:100700000610831206148A2B831603170313861010
:1007100083128614FF308316880006128312061691
:1007200083168612831286160230F700F70B962B7B
:10073000000083168612831286120230F700F70B30
:100740009F2B000083168612831286160230F70054
:10075000F70BA82B0000FF308316880083120808CF
:1007600083160317DC000313861283128612831686
:1007700006108312061083168610831286108316C5
:1007800003175C08F8007808D900580BD72B5708D6
:100790000739DB000130F7005B08F8000319D42BA0
:1007A0000310F70DF80BD02B7708D904E72B570867
:1007B0000739DB000130F7005B08F8000319E42B70
:1007C0000310F70DF80BE02B7708FF3AD905031358
:1007D000061183120611831603175A08DC00560807
:1007E000DD0083120313EA21831606118312061516
:1007F000831603175A08DC005908DD00831203131F
:10080000EA21080083160317CA014A084607840034
:1008100083134718831780080319EE2C4A084607EC
:1008200084008313471883170008523C031C412C93
:100830004A084607840083134718831720300002B4
:10084000D500D7000530D800831203131C22780886
:1008500083160317D400F8000530F700CF3084006A
:10086000831778088312031304208000F80A840A8F
:10087000F70B3B2C3E2C83160317312C7B2C831655
:1008800003174A0846078400831347188317000894
:100890007E3C031C742C4A084607840083134718C7
:1008A000831753300002D500D7000530D8008312DB
:1008B00003131C22780883160317D400F8000530B0
:1008C000F700CF30840083177808831203130A21BE
:1008D0008000F80A840AF70B6E2C712C831603171C
:1008E000642C7B2C83160317CF01D001D101D201D8
:1008F000D30183120313053083160317D70048086A
:10090000D800831203131C227808831603174407A8
:100910007F3C0318982CC4010730D7004808D80042
:10092000831203131C220130780783160317C507AF
:10093000CB014B08043C031CEB2CCC010730D70047
:100940004808D800831203131C2278088316031763
:100950004C020318E72CCF304B07840083170008A4
:10096000D400F7004C08F8000319BA2C0310F70C58
:10097000F80BB62C771CE52CCD0148084D02031866
:10098000E52CCE0148084E020318E32C4E0844071C
:10099000D4004C08D7004808D800831203131C2247
:1009A00078088316031745074D07D5005408D6006D
:1009B0005508D7004908D80083120313452383162E
:1009C0000317CE0AC22CCD0ABD2CCC0A9E2CCB0A12
:1009D0004808C407992CCA0AC40A052C83120313B9
:1009E000080083160317C501831203134522143030
:1009F00083160317C4001930C5000130C700423008
:100A0000C6000130C800C900831203130224083055
:100A100083160317C400FA30C60083120313302371
:100A200083160317C40B0B2D031383128A150A12A6
:100A30008D2983160317C40144083F3C031C3B2D3A
:100A4000C50145087F3C031C322D4508D6004408EB
:100A5000D7000130D80083120313452383160317F0
:100A6000C50A212D0530C6008312031330238316D7
:100A70000317C40A1C2D83120313080083160317DF
:100A800048084A02D6005608D61F482D5608003C92
:100A9000D10049084B02D6005608D61F512D5608E2
:100AA000003CD2004808CD004908CE0048084A0260
:100AB00003185D2DFF30CF005F2D0130CF004908B6
:100AC0004B020318662DFF30D000682D0130D00096
:100AD0005208803AF7005108803A77020319722DC4
:100AE0000318D42D0230D7005208D8008312031304
:100AF0001C228316031751087802FA01F700F71B2E
:100B0000FA03D3007A08D400D501D11BD32D5508A0
:100B10005102031CD32D4D08D6004E08D7004C08B7
:100B2000D80083120313452383160317D41FAE2D59
:100B30000230D7005208D800831203131C22780811
:100B4000FA01F700F71BFA0383160317D3077A0895
:100B500003187A0FD4074F08CD07D12D0230D700E4
:100B60005208D800831203131C2278088316031737
:100B7000D6000230D7005108D800831203131C227C
:100B80007808831603175602FA01F700F71BFA03D9
:100B9000D3077A0803187A0FD4074F08CD075008F7
:100BA000CE07D50A852D352E0230D7005108D80042
:100BB000831203131C228316031752087802FA01CA
:100BC000F700F71BFA03D3007A08D400D501D21B33
:100BD000352E55085202031C352E4D08D6004E08FE
:100BE000D7004C08D800831203134523831603173C
:100BF000D41F102E0230D7005108D80083120313DF
:100C00001C227808FA01F700F71BFA038316031772
:100C1000D3077A0803187A0FD4075008CE07332E6B
:100C20000230D7005108D800831203131C22780821
:100C300083160317D6000230D7005208D80083125B
:100C400003131C227808831603175602FA01F700D3
:100C5000F71BFA03D3077A0803187A0FD4074F0853
:100C6000CD075008CE07D50AE72D831203130800DD
:100C700083160317C40144080A3C031C5A2E440877
:100C8000D7000630D800831203131C22780883167D
:100C90000317C5004508C800C9014508CA003C3013
:100CA000CB000130CC00831203133E2583160317BB
:100CB000C40A3B2EC60146080A3C031C7A2E46088D
:100CC000D7000630D800831203131C22780883163D
:100CD0000317C700C8014708C9003C30CA004708CD
:100CE000CB000130CC00831203133E25831603177B
:100CF000C60A5B2E831203130800413083160317C4
:100D0000C40044087C3C031C982EC5014508133CD4
:100D1000031C962E4408D6004508D700D80183123C
:100D20000313452383160317C50A862EC40A812E92
:100D30004130C400C501C7016130C6000130C800A0
:100D4000C900831203130224413083160317C40021
:100D50000A30C500C7016C30C6000130C800C900A8
:100D60008312031302240800F801F901F701FA01C4
:100D7000831603174C08031DC02E4B080319DA2EE7
:100D80001030CD000310C90DCA0DF70DFA0D4C0837
:100D90007A02031DCD2E4B087702031CD62E4B087A
:100DA000F702031CFA034C08FA020314F80DF90DBC
:100DB000CD0BC22E831203130800250883160317D8
:100DC000C90083120313240883160317C800831273
:100DD0000313230883160317C70083120313220883
:100DE00083160317C6004130CD00C630CC004E300C
:100DF000CB006D30CA002030D200CE01CF01D0012F
:100E0000D1014908FA004808F9004708F8004608E7
:100E1000F7000310771C1A2F4A08CE074B08031857
:100E20004B0FCF074C0803184C0FD0074D08031881
:100E30004D0FD107D10CD00CCF0CCE0CFA0CF90C05
:100E4000F80CF70CD20B092F7A08C9007908C800F2
:100E50007808C7007708C6003930460783120313A5
:100E6000A20083160317470883120313A300303030
:100E700003183130A307831603174808831203139E
:100E8000A400003003180130A40783160317490893
:100E900083120313A500003003180130A5072408AE
:100EA000F7002508F800F901FA0125088316031751
:100EB000C8007708C7004808CA004708C9007F3043
:100EC000CC00FF30CB0083120313B4267708F80060
:100ED0007A08F900080083160317C61B7C2FC61B6F
:100EE000752F4608093C031C7C2FC71B7C2FC71B92
:100EF0007D2F4708093C031CB42F4608D700063055
:100F0000D800831203131C220130780783160317BD
:100F1000C9004708D7000630D800831203131C22EB
:100F20000130780783160317CA00CB014B08043C35
:100F3000031CB42FCC014C08043C031CB22F4B08FB
:100F40004907CD004C084A07CE004D08D6004E0890
:100F5000D7004808D80083120313452383160317CC
:100F6000CC0A9B2FCB0A962F83120313080005305F
:100F7000DC00DD010230DE00DF013030E800E90096
:100F80000230D90083160317C501831203134522CB
:100F9000193083160317C4001E30C500C701D230B4
:100FA000C6000130C800C9008312031302240630B2
:100FB00083160317C400FA30C600831203133023CC
:100FC00083160317C40BDB2F831203131925831613
:0E0FD0000317C50183120313452238260800BB
:1010000083160317C401C408031D7A288A118312AA
:101010000313DD268A15790883160317C70078089D
:10102000C6004708CA004608C900CC010A30CB00F8
:101030008A1183120313B4268A157708DA008A11FD
:10104000DD268A15790883160317C7007808C600BD
:101050004708CA004608C900CC010A30CB008A11F3
:1010600083120313B4268A157708DB000130831638
:101070000317C400C501831203135C08831603170A
:101080004502031879284508313C031C4D282730B8
:101090004507840083130008532832304502103E70
:1010A000840083170008831203135A02031D752856
:1010B000831603174508313C031C6428A0304507FC
:1010C0008400831300086A2832304502903E840071
:1010D00083170008831203135B02031D7528831610
:1010E0000317C40179288312031383160317C50A53
:1010F0003B280328831203135A0883160317C600DC
:10110000831203135B0883160317C7000130C8005E
:101110008A11831203136B278A150800831603179D
:10112000C5018A118312031345228A1523308316C1
:101130000317C400C500C701E030C6000130C80075
:10114000C9008A118312031302248A150A308316F8
:101150000317C400FA30C6008A1183120313302328
:101160008A1583160317C40BAA288A118312031346
:1011700019258A1583160317C5018A1183120313D3
:1011800045228A158A1138268A150530DC00DD01D2
:101190000230DE00DF013030E800E9000230D90023
:1011A0008A150A12D72B831603174508F801440243
:1011B0000318DD284408F700E928F7010830C600C5
:1011C000C40DF70D450877020318F700F80DC60B9C
:1011D000E02883120313080003081F398300FF303F
:1011E000A6000230D9000530DC00DD010230DE004F
:1011F000DF01E0017B1483161F149F141F159F113C
:1012000007309C0083138312A001A1015330E10039
:101210006330E2006F30E3007230E4006530E500D7
:101220003A30E6002030E7003030E800E900EA011B
:101230004230EC006530ED007330EE007430EF00AA
:101240003A30F0002030F1003030F200F300F401C9
:1012500047308316D2004130D3004D30D4004530A2
:10126000D5004F30D6005630D7004530D800523028
:10127000D9002030DA002130DB00DC00DD00DE01A7
:101280005930E0004F30E1005530E2002030E300FB
:101290005730E4004F30E5004E30E6002130E700E3
:1012A000E801533083120317C2004E30C3004130AF
:1012B000C4004B30C5004530C6002030C700473061
:1012C000C8004130C9004D30CA004530CB00CC01C8
:1012D00001308316C4008A1183120313B42A8A15BD
:1012E00083160317C5018A118312031345228A1539
:1012F000023083160317C400FA30C6008A11831225
:10130000031330238A1583160317C40B7C297B1C17
:1013100094298A1183120313F12C8A158A11192535
:101320008A157B1083160317C5018A1183120313D4
:1013300045228A158A1138268A158A117D268A1532
:101340000020F6015C0876020318FE297608313C7D
:10135000031CB229273076078400831376085D02C8
:101360008000BA2932307602103E84008317760856
:101370005D0280007608313C031CC629A030760748
:10138000840083135E0880005E08CD293230760227
:10139000903E840083175E0880007608313C031C71
:1013A000D72927307607840083130008DD293230DF
:1013B0007602103E84008317000883160317C400CA
:1013C0007608313C031CEA29A03076078400831399
:1013D0000008F02932307602903E8400831700081E
:1013E000C5004408C6004508C7000130C8008A117E
:1013F000831203136B278A15F60AA229A61526085D
:10140000831687008312871D0A2AD90803190A2A1E
:101410000330D90026152608831687008312071D7E
:10142000162A590B142A162A0230D900A6142608A7
:10143000831687008312871C232A5908023C03194C
:10144000232A0130D9002616260883168700831226
:10145000071E2E2A5908033C031DD901A61626088B
:10146000831687008312871E3D2A8A11B7278A15A3
:10147000831603178729831203135908FC3E0318A8
:101480008C2A043E2A2CDD08031D4F2A8A11B72717
:101490008A15831603178729522A83120313DD0343
:1014A00083160317831203138C2ADE08031D612A97
:1014B0008A11B7278A15831603178729642A83128E
:1014C0000313DE0383160317831203138C2A5E08AB
:1014D000093C031D742A8A11B7278A15831603173E
:1014E0008729772A83120313DE0A831603178312D0
:1014F00003138C2A5D08093C031D872A8A11B7272C
:101500008A158316031787298A2A83120313DD0A93
:101510008316031783120313270883160317C200C9
:10152000031320080317C300F601013083120313CD
:101530005C02760203184A2B7608313C031CCB2A46
:1015400027307607F800FA010318FA0A780883169C
:101550000317C4007A08C50001307607313C031C2C
:10156000B82A01307607273E840083130008BF2A7B
:1015700001307607CE3E103E840083170008C60077
:1015800044088400831345188317460880004608E2
:10159000F42A8312031332307602103EF800013031
:1015A000FA000318FA0A780883160317C6007A08A7
:1015B000C70001307607313C031CE52A013076076D
:1015C000273E840083130008EC2A01307607CE3EC4
:1015D000103E840083170008C4004608840083136B
:1015E00047188317440880007608313C031C1F2BE2
:1015F000A0307607F800FA010318FA0A7808C40048
:101600007A08C50001307607313C031C0E2B0130EF
:101610007607A03E840083130008152B013076075F
:10162000CE3E903E840083170008C6004408840024
:10163000831345188317460880004608462B32302E
:101640007602903EF8000130FA000318FA0A780892
:10165000C6007A08C70001307607313C031C372BDF
:1016600001307607A03E8400831300083E2B013032
:101670007607CE3E903E840083170008C4004608DB
:10168000840083134718831744088000F60A952ABC
:101690008312031301305C02313C031C582B0130D0
:1016A0005C02273E840083135D0880005D08602B88
:1016B00001305C02CE3E103E840083175D0880003E
:1016C00001305C02313C031C6E2B01305C02A03EF9
:1016D000840083135E0880005E08762B01305C0274
:1016E000CE3E903E840083175E088000F6010130F4
:1016F0005C0276020318AC2B7608313C031C862B67
:10170000273076078400831300088C2B3230760252
:10171000103E8400831700085D02031DAA2B760883
:10172000313C031C992BA0307607840083130008FA
:101730009F2B32307602903E8400831700085E02B1
:10174000031DAA2B8A11B7278A1583160317872929
:1017500083120313F60A772B5D0883160317C6005E
:10176000831203135E0883160317C7000130C800F5
:101770008A11831203136B278A15831603174208F5
:10178000C6004308C700C8018A11831203136B27E0
:101790008A155A085D02031D172C5B085E02031DA3
:1017A000172CDC0A5C08633C0318DC2B8E2883169C
:1017B00003178729831203130020DF0A5F088316AB
:1017C0000317C4000A30C50083120313D32078081E
:1017D000303EE8005F0883160317C4000A30C500D6
:1017E00083120313D3207708303EE9005F086002BC
:1017F0000318142C5F08E000600883160317C40068
:101800000A30C50083120313D3207808303EF3005A
:10181000600883160317C4000A30C500831203133F
:10182000D3207708303EF4008A117D268A150330D4
:1018300083160317C400C830C6008A11831203132D
:1018400030238A1583160317C40B1B2C8312031332
:10185000FE2963000A108A100A158207432A552AB6
:04186000672A7A2A4F
:02400E00723FFF
:00000001FF
;PIC16F877A
;CRC=243C  CREATED="30-May-25 15:34"
