:1000000008308A00002800000A108A100A110B3EEE
:1000100003188A0A820000340034003400340034AB
:10002000003400345F3400340034003403340034CE
:100030000334003414343E3414343E341434243441
:100040002A347F342A341234433433340834663447
:100050006134363449345534223450340034053454
:1000600003340034003400341C342234413400346E
:100070000034413422341C340034143408343E3407
:1000800008341434083408343E3408340834003456
:100090005034303400340034083408340834083420
:1000A00008340034603460340034003420341034B8
:1000B0000834043402343E345134493445343E3437
:1000C000043402347F340034003442346134513417
:1000D00049344634223441344934493436341834AE
:1000E000143412347F3410342734453445344534C5
:1000F00039343E34493449344934323401340134DA
:100100007134093407343634493449344934363487
:1001100026344934493449343E3400343634363494
:10012000003400340034563436340034003408349B
:100130001434223441340034143414341434143458
:100140001434003441342234143408340234013479
:100150005134093406343E344134593455345E3414
:100160007E340934093409347E347F3449344934C7
:10017000493436343E3441344134413422347F34BE
:100180004134413441343E347F3449344934493474
:1001900041347F3409340934093401343E34413464
:1001A000413449343A347F340834083408347F34D5
:1001B000003441347F3441340034303440344034EE
:1001C00040343F347F3408341434223441347F3493
:1001D00040344034403440347F3402340C340234F0
:1001E0007F347F340234043408347F343E34413465
:1001F000413441343E347F340934093409340634FF
:100200001E342134213421345E347F3409340934DE
:10021000093476340A148A100A11820726344934C4
:10022000493449343234013401347F3401340134E7
:100230003F344034403440343F341F342034403461
:1002400020341F347F342034103420347F34413440
:1002500022341C34223441340734083470340834D6
:1002600007346134513449344534433400347F34E5
:10027000413400340034023404340834103420345F
:100280000034003441347F34003404340234013407
:100290000234043440344034403440344034003478
:1002A000013402340434003420345434543454348B
:1002B00078347F3444344434443438343834443427
:1002C00044344434443438344434443444347F343F
:1002D00038345434543454341834043404347E34AC
:1002E0000534053408345434543454343C347F34A5
:1002F0000834043404347834003444347D344034D5
:1003000000342034403444343D3400347F341034DD
:10031000283444340034003441347F3440340034D1
:100320007C3404347834043478347C340834043431
:1003300004347834383444344434443438347C34E9
:100340001434143414340834083414341434143485
:100350007C3400347C340834043404344834543459
:10036000543454342034043404343F344434443456
:100370003C344034403420347C341C342034403409
:1003800020341C343C344034303440343C34443425
:1003900028341034283444340C345034503450341D
:1003A0003C344434643454344C34443400340834DD
:1003B000363441344134003400347F340034003466
:1003C00041344134363408340034023401340234C8
:1003D0000434023483166208303C031DF4290610ED
:1003E00083120614F7298316861083128614831647
:1003F000061283120612831688016308831288008E
:1004000083168612831286160230F700F70B062A2F
:10041000000083168612831286128316061083123A
:10042000061083168610831286100800F701F80163
:1004300083165D0803105E18F707F70CF80CDE183A
:10044000F707F70CF80C5E19F707F70CF80CDE1934
:10045000F707F70CF80C5E1AF707F70CF80CDE1A22
:10046000F707F70CF80C5E1BF707F70CF80CDE1B10
:10047000F707F70CF80C831208008316CC014C0820
:10048000073C031C962A061183120611303083168E
:10049000E2004030E3008312EA2131308316E200AB
:1004A0004030E3008312EA2183164C08B838CE00AE
:1004B0003030E2004E08E3008312EA2183164C0834
:1004C000B838CE003130E2004E08E3008312EA2152
:1004D00083160611831206158316CD014D083F3C85
:1004E000031C942AFF30DD004B08DE008312162225
:1004F00078088316CE003030E2004E08E300831205
:10050000EA21FF308316DD004B08DE00831216223D
:1005100078088316CE003130E2004E08E3008312E3
:10052000EA218316CD0A6E2ACC0A3F2A83120800DC
:100530002610260883168700831207148316861256
:1005400083128612831606108312061083168610F5
:10055000831286108316061183120611303083161B
:10056000E200C030E3008312EA2131308316E2005A
:10057000C030E3008312EA2130308316E2004030BD
:10058000E3008312EA2131308316E2004030E300B9
:100590008312EA2130308316E200B830E300831280
:1005A000EA2131308316E200B830E3008312EA21F9
:1005B00083164A0BEA2A3030E2003F30E300831210
:1005C000EA2131308316E2003F30E3008312EA2152
:1005D000F72A83163030E2003E30E3008312EA212E
:1005E00031308316E2003E30E3008312EA218316A5
:1005F000CB0183123D228A150A125B283030831604
:10060000E0005C083F3C0318092B4030DC0231302D
:10061000E0000611831206118316DC135C176008D4
:10062000E2005C08E3008312EA2183165D0CF70008
:10063000F70CF70C1F30F7057708BF39B838E10021
:100640006008E2006108E3008312EA2183160611C4
:100650008312061583166008E1006108303C031D13
:10066000362B061083120614392B8316861083123C
:100670008614FF308316880006128312061683162E
:100680008612831286160230F700F70B452B000006
:1006900083168612831286120230F700F70B4E2B58
:1006A000000083168612831286160230F700F70BBD
:1006B000572B0000FF30831688008312080883162A
:1006C000E200861283128612831606108312061029
:1006D000831686108312861083166208F800780845
:1006E000DF005E0B832B5D080739E1000130F70066
:1006F0006108F8000319802B0310F70DF80B7C2B11
:100700007708DF04932B5D080739E1000130F7001B
:100710006108F8000319902B0310F70DF80B8C2BD0
:100720007708FF3ADF050611831206118316600869
:10073000E2005C08E3008312EA21831606118312AB
:10074000061583166008E2005F08E3008312EA21C1
:10075000080083164E085002DC005C08DC1FB22B38
:100760005C08003CD7004F085102DC005C08DC1F2D
:10077000BB2B5C08003CD8004E08D3004F08D400C7
:100780004E0850020318C72BFF30D500C92B01308B
:10079000D5004F0851020318D02BFF30D600D22BC2
:1007A0000130D6005808803AF7005708803A77029F
:1007B0000319DC2B0318342C0230DD005808DE004E
:1007C00083121622831657087802FA01F700F71BE6
:1007D000FA03D9007A08DA00DB01D71B332C5B0857
:1007E0005702031C332C5308DC005408DD00520868
:1007F000DE008312FE228316DA1F122C0230DD0087
:100800005808DE00831216227808FA01F700F71B59
:10081000FA038316D9077A0803187A0FDA075508FE
:10082000D307312C0230DD005808DE008312162277
:1008300078088316DC000230DD005708DE008312E2
:100840001622780883165C02FA01F700F71BFA03F8
:10085000D9077A0803187A0FDA075508D30756081C
:10086000D407DB0AED2B8B2C0230DD005708DE00AD
:1008700083121622831658087802FA01F700F71B34
:10088000FA03D9007A08DA00DB01D81B8B2C5B084D
:100890005802031C8B2C5308DC005408DD0052085E
:1008A000DE008312FE228316DA1F6A2C0230DD007E
:1008B0005708DE00831216227808FA01F700F71BAA
:1008C000FA038316D9077A0803187A0FDA0756084D
:1008D000D407892C0230DD005708DE00831216226F
:1008E00078088316DC000230DD005808DE00831231
:1008F0001622780883165C02FA01F700F71BFA0348
:10090000D9077A0803187A0FDA075508D30756086B
:10091000D407DB0A452C831208008316CA014A0853
:100920000A3C031CAA2C4A08DD000630DE008312B4
:10093000162278088316CB004B08CE00CF014B0857
:10094000D0003C30D1000130D2008312A92383169D
:10095000CA0A8F2CCC014C080A3C031CC62C4C083C
:10096000DD000630DE008312162278088316CD00E3
:10097000CE014D08CF003C30D0004D08D1000130F1
:10098000D2008312A9238316CC0AAB2C8312080051
:10099000CB308400831300080319DC2C0530F800E9
:1009A000F701F70BD12CF80BD02C2E30F700F70BFA
:1009B000D72CDA2C800BCE2C08008316D0015008DF
:1009C0004C07840083134D18831780080319B22D38
:1009D00050084C07840083134D1883170008523CBD
:1009E000031C162D50084C07840083134D188317E1
:1009F00020300002DB00DD000530DE00831216220D
:100A000078088316DA00F8000530F700D530840046
:100A100083137808831204208000F80A840AF70BF5
:100A2000122D142D8316092D4A2D831650084C07BC
:100A3000840083134D18831700087E3C031C442D4B
:100A400050084C07840083134D188317533000025D
:100A5000DB00DD000530DE008312162278088316E5
:100A6000DA00F8000530F700D530840083137808E9
:100A700083120A218000F80A840AF70B402D422DC8
:100A80008316372D4A2D8316D501D601D701D801FB
:100A9000D901831205308316DD004E08DE00831273
:100AA0001622780883164A077F3C0318622DCA0174
:100AB0000730DD004E08DE00831216220130780771
:100AC0008316CB07D1015108043C031CAF2DD20182
:100AD0000730DD004E08DE008312162278088316E8
:100AE00052020318AB2DD530510784008313000840
:100AF000DA00F7005208F8000319822D0310F70CF2
:100B0000F80B7E2D771CA92DD3014E085302031834
:100B1000A92DD4014E0854020318A72D54084A07E2
:100B2000DA005208DD004E08DE0083121622780833
:100B300083164B075307DB005A08DC005B08DD0017
:100B40004F08DE008312FE228316D40A8A2DD30AB0
:100B5000852DD20A682DD10A4E08CA07632DD00A06
:100B6000CA0ADF2C8312080041308316CA004A08E3
:100B70007C3C031CCC2DCB014B08133C031CCA2D21
:100B80004A08DC004B08DD00DE018312FE228316DA
:100B9000CB0ABC2DCA0AB72D4130CA00CB01CD010A
:100BA000A430CC000130CE00CF008312DD244130D0
:100BB0008316CA000A30CB00CD01AF30CC00013023
:100BC000CE00CF008312DD240800F801F901F701FF
:100BD000FA0183165208031DF02D510803190A2E3D
:100BE0001030D3000310CF0DD00DF70DFA0D5208C1
:100BF0007A02031DFD2D51087702031C062E5108B1
:100C0000F702031CFA035208FA020314F80DF90D57
:100C1000D30BF22D8312080025088316CF00831210
:100C200024088316CE00831223088316CD00831276
:100C300022088316CC004130D300C630D2004E309B
:100C4000D1006D30D0002030D800D401D501D601BC
:100C5000D7014F08FA004E08F9004D08F8004C087B
:100C6000F7000310771C422E5008D40751080318D0
:100C7000510FD50752080318520FD607530803180F
:100C8000530FD707D70CD60CD50CD40CFA0CF90C93
:100C9000F80CF70CD80B312E7A08CF007908CE006B
:100CA0007808CD007708CC0039304C078312A200B9
:100CB00083164D088312A300303003183130A30788
:100CC00083164E088312A400003003180130A407D5
:100CD00083164F088312A500003003180130A507C2
:100CE0002408F7002508F800F901FA012508831601
:100CF000CE007708CD004E08D0004D08CF007F30E1
:100D0000D200FF30D1008312E5257708F8007A0879
:100D1000F900080083164C08DD000630DE0083125F
:100D20001622013078078316CF004D08DD0006300B
:100D3000DE0083121622013078078316D000D1011D
:100D40005108043C031CBC2ED2015208043C031C75
:100D5000BA2E51084F07D30052085007D400530849
:100D6000DC005408DD004E08DE008312FE228316EC
:100D7000D20AA52ED10AA02E831208008316CA011A
:100D8000CA08031D062F83120C2679088316CD008E
:100D90007808CC004D08D0004C08CF00D2010A30B2
:100DA000D1008312E5257708FC000C26790883160C
:100DB000CD007808CC004D08D0004C08CF00D201FF
:100DC0000A30D1008312E5257708FD000130831633
:100DD000CA00CB017E084B020318052F03104B0DF0
:100DE000273E840083137C080002031D032F031099
:100DF0004B0D013E273E840083137D080002031D36
:100E0000032FCA01052FCB0AEA2EC02E7C08CC0086
:100E10007D08CD000130CE0083128A260800033001
:100E2000FE0001308316A0000230A100A201303084
:100E3000AC00AB000230FB00CB0183123D228D24BD
:100E400019308316CA003C30CB00CD01B930CC003C
:100E50000130CE00CF008312DD2404308316CA0097
:100E6000FA30CB008312C8248316CA0B302F8312AA
:100E7000080083164B08F8014A020318422F4A085B
:100E8000F7004E2FF7010830CC00CA0DF70D4B08C4
:100E900077020318F700F80DCC0B452F83120800DA
:1010000003081F398300FF30A6000230FB000330C5
:10101000FE0001308316A0000230A100A201A3014E
:101020001F149F141F159F1107309C0083138312F8
:10103000A001A10153308316A4006330A5006F30D6
:10104000A6007230A7006530A8003A30A900203011
:10105000AA003030AB00AC00AD014230AF006530CB
:10106000B0007330B1007430B2003A30B3002030B9
:10107000B4003030B500B600B7014730B900413098
:10108000BA004D30BB004530BC002030BD004F30B1
:10109000BE005630BF004530C0005230C100203085
:1010A000C2002130C300C400C500C6010130CA001F
:1010B0008A118312982A8A158316CB018A1183120A
:1010C0003D228A158A118D248A1502308316CA00A2
:1010D000FA30CB008A118312C8248A158316CA0BF2
:1010E0006828CB018A1183123D228A158A118D242A
:1010F0008A158A11B4258A158A11BE268A15831687
:10110000C7017E0847020318B5280310470D273E84
:101110008400831301307E02F80047087802200221
:1011200080000310470D013E273E840083132108F1
:1011300080000310470D273E840083130008CA0077
:101140000310470D013E273E840083130008CB00A7
:101150004A08CC004B08CD000130CE008A11831222
:101160008A268A158316C70A81288312A61526089F
:10117000831687008312871DC228FB080319C22823
:101180000330FB0026152608831687008312071DEF
:10119000CE287B0BCC28CE280230FB00A6142608D4
:1011A000831687008312871CDB287B08023C031907
:1011B000DB280130FB0026162608831687008312E1
:1011C000071EE6287B08033C031DFB01A616260824
:1011D000831687008312871EF3288A110F278A152A
:1011E0008316712883127B08FC3E03183229043EC3
:1011F000232A8316A008031D04298A1183120F27AE
:101200008A15831671280529A003831232298316B3
:10121000A108031D12298A1183120F278A1583162C
:1012200071281329A1038312322983162108093C4E
:10123000031D21298A1183120F278A15831671280D
:101240002229A10A8312322983162008093C031D92
:1012500030298A1183120F278A15831671283129A4
:10126000A00A831227088316C80083122808831651
:10127000C900C70101307E02470203187529031017
:10128000470D273ECA00CB010318CB0A01304707A0
:10129000F7000310F70D7708273E8400831300083A
:1012A000CC004A08840083134B1883174C08800035
:1012B0000310470D013E273ECA00CB010318CB0A9D
:1012C00001304707F7000310F70D7708013E273E6E
:1012D000840083130008CC004A08840083134B1851
:1012E00083174C088000C70A3A2901307E02F700B4
:1012F0000310F70D7708273E840083132008800031
:1013000001307E02F7000310F70D7708013E273EFB
:101310008400831321088000C70101307E02470248
:101320000318AD290310470D273E840083132008BE
:101330000002031DAB290310470D013E273E840028
:10134000831321080002031DAB298A1183120F2782
:101350008A1583167128C70A8D292008CC00210818
:10136000CD000130CE008A1183128A268A15831699
:101370004808CC004908CD00CE018A1183128A2684
:101380008A157C0883162002031D162A7D08210277
:10139000031D162AFE0A7E08613C0318D5298A110E
:1013A00083120F278A15831671288A118312BE268D
:1013B0008A158316A20A2208CA000A30CB008A11B5
:1013C000831239278A157808303E8316AB0022082D
:1013D000CA000A30CB008A11831239278A15770890
:1013E000303E8316AC00220823020318112A22087B
:1013F000A3002308CA000A30CB008A1183123927C0
:101400008A157808303E8316B6002308CA000A30D1
:10141000CB008A11831239278A157708303E83164C
:10142000B7008A118312B4258A1583160330CA00C7
:10143000C830CB008A118312C8248A158316CA0BC0
:10144000182AB52863000A108A140A118207F9289D
:06145000072915292429DB
:02400E00723FFF
:00000001FF
;PIC16F877A
;CRC=499C  CREATED="27-May-25 13:33"
