:100000000A308A00A72A00000A108A100A110B3E43
:1000100003188A0A820000340034003400340034AB
:10002000003400345F3400340034003403340034CE
:100030000334003414343E3414343E341434243441
:100040002A347F342A341234433433340834663447
:100050006134363449345534223450340034053454
:1000600003340034003400341C342234413400346E
:100070000034413422341C340034143408343E3407
:1000800008341434083408343E3408340834003456
:100090005034303400340034083408340834083420
:1000A00008340034603460340034003420341034B8
:1000B0000834043402343E345134493445343E3437
:1000C000043402347F340034003442346134513417
:1000D00049344634223441344934493436341834AE
:1000E000143412347F3410342734453445344534C5
:1000F00039343E34493449344934323401340134DA
:100100007134093407343634493449344934363487
:1001100026344934493449343E3400343634363494
:10012000003400340034563436340034003408349B
:100130001434223441340034143414341434143458
:100140001434003441342234143408340234013479
:100150005134093406343E344134593455345E3414
:100160007E340934093409347E347F3449344934C7
:10017000493436343E3441344134413422347F34BE
:100180004134413441343E347F3449344934493474
:1001900041347F3409340934093401343E34413464
:1001A000413449343A347F340834083408347F34D5
:1001B000003441347F3441340034303440344034EE
:1001C00040343F347F3408341434223441347F3493
:1001D00040344034403440347F3402340C340234F0
:1001E0007F347F340234043408347F343E34413465
:1001F000413441343E347F340934093409340634FF
:100200001E342134213421345E347F3409340934DE
:10021000093476340A148A100A11820726344934C4
:10022000493449343234013401347F3401340134E7
:100230003F344034403440343F341F342034403461
:1002400020341F347F342034103420347F34413440
:1002500022341C34223441340734083470340834D6
:1002600007346134513449344534433400347F34E5
:10027000413400340034023404340834103420345F
:100280000034003441347F34003404340234013407
:100290000234043440344034403440344034003478
:1002A000013402340434003420345434543454348B
:1002B00078347F3444344434443438343834443427
:1002C00044344434443438344434443444347F343F
:1002D00038345434543454341834043404347E34AC
:1002E0000534053408345434543454343C347F34A5
:1002F0000834043404347834003444347D344034D5
:1003000000342034403444343D3400347F341034DD
:10031000283444340034003441347F3440340034D1
:100320007C3404347834043478347C340834043431
:1003300004347834383444344434443438347C34E9
:100340001434143414340834083414341434143485
:100350007C3400347C340834043404344834543459
:10036000543454342034043404343F344434443456
:100370003C344034403420347C341C342034403409
:1003800020341C343C344034303440343C34443425
:1003900028341034283444340C345034503450341D
:1003A0003C344434643454344C34443400340834DD
:1003B000363441344134003400347F340034003466
:1003C00041344134363408340034023401340234C8
:1003D00004340234831603171808303C031DF72930
:1003E0000313061083120614FB2983160317031345
:1003F0008610831286148316061283120612831641
:1004000088010317190883120313880083168612C4
:10041000831286160230F700F70B0C2A00008316B1
:100420008612831286128316061083120610831614
:100430008610831286100800F701F801831603174F
:10044000120803101318F707F70CF80C9318F707A6
:10045000F70CF80C1319F707F70CF80C9319F707BA
:10046000F70CF80C131AF707F70CF80C931AF707A8
:10047000F70CF80C131BF707F70CF80C931BF70796
:10048000F70CF80C8312031308000317DD015D0855
:10049000073C031CBC2A83160313061183120611A2
:1004A00030308316031798004030990083120313ED
:1004B000EA213130831603179800403099008312E7
:1004C0000313EA2103175D08B838DF0030308316C4
:1004D000980083125F088316990083120313EA21A0
:1004E00003175D08B838DF00313083169800831297
:1004F0005F088316990083120313EA2183160611FD
:10050000831206150317DE015E083F3C031CBA2A5E
:10051000FF308316920083125C08831693008312C7
:1005200003131C2278080317DF003030831698006D
:1005300083125F088316990083120313EA21FF30A8
:1005400083160317920083125C08831693008312AC
:1005500003131C2278080317DF003130831698003C
:1005600083125F088316990083120313EA2103178D
:10057000DE0A842ADD0A472A03130800261026080B
:10058000831687008312071483168612831286123D
:1005900083160610831206108316861083128610A7
:1005A0008316061183120611303083160317980044
:1005B000C030990083120313EA21313083160317E8
:1005C0009800C030990083120313EA21303083165B
:1005D000031798004030990083120313EA21313049
:1005E0008316031798004030990083120313EA2101
:1005F0003030831603179800B83099008312031324
:10060000EA213130831603179800B830990083121D
:100610000313EA2103174A0B202B3030831698006E
:100620003F30990083120313EA21313083160317F8
:1006300098003F30990083120313EA21312B0317EE
:100640003030831698003E30990083120313EA215C
:1006500031308316031798003E309900831203133C
:10066000EA210317DC01031345228A150A12532BD2
:100670005F3084008317000803194C2B0530F80005
:10068000F701F70B412BF80B402B2E30F700F70B3F
:10069000472B4A2B800B3E2B080010300317E3003A
:1006A000F701FA01E00CDF0C031C5C2B6108F70773
:1006B0000318FA0A6208FA07FA0CF70CF90CF80C9E
:1006C000E30B522B03130800F801F901F701FA01BB
:1006D00003176408031D6F2B63080319892B10305F
:1006E000E5000310E10DE20DF70DFA0D64087A0242
:1006F000031D7C2B63087702031C852B6308F7021C
:10070000031CFA036408FA020314F80DF90DE50B53
:10071000712B031308000317E0015C08DF000330AE
:10072000E200E830E10003134D2379080317E000ED
:100730007808DF006008E2005F08E1000730E400AD
:10074000D030E3000313642378080317DD00DE01D3
:100750005D085E020318C22B8316031386118312F1
:10076000861101300317DF00031338238316861127
:100770008312861501300317DF0003133823031794
:10078000DE0AA82B83160313861183128615080030
:10079000303083160317960012083F3C0318D42B01
:1007A0004030920231309600031306118312061175
:1007B000831603179213121716089800120899004F
:1007C00083120313EA2183160317130CF700F70CA7
:1007D000F70C1F30F7057708BF39B83897001608AF
:1007E00098001708990083120313EA218316061153
:1007F0008312061583160317160897001708303C56
:10080000031D092C03130610831206140D2C8316E6
:1008100003170313861083128614FF308316880093
:10082000061283120616831686128312861602306B
:10083000F700F70B192C000083168612831286121C
:100840000230F700F70B222C000083168612831269
:1008500086160230F700F70B2B2C0000FF308316B2
:100860008800831208088316031798000313861262
:1008700083128612831606108312061083168610C2
:1008800083128610831603171808F800780895005D
:10089000140B5A2C1308073997000130F70017087A
:1008A000F8000319572C0310F70DF80B532C770899
:1008B00095046A2C1308073997000130F7001708D0
:1008C000F8000319672C0310F70DF80B632C770859
:1008D000FF3A9505031306118312061183160317B9
:1008E000160898001208990083120313EA21831650
:1008F00006118312061583160317160898001508AB
:10090000990083120313EA2108000317E501650823
:1009100061078400831362188317800803197C2DF4
:100920006508610784008313621883170008523C2E
:10093000031CC32C650861078400831362188317A6
:10094000203000028316910092000530930083123C
:1009500003131C227808831603179000F800053053
:10096000F7006A3084008317780883120313042089
:100970008000F80A840AF70BBE2CC12C83160317DB
:10098000B42CFC2C031765086107840083136218DC
:10099000831700087E3C031CF62C65086107840061
:1009A000831362188317533000028316910092005C
:1009B00005309300831203131C2278088316031753
:1009C0009000F8000530F7006A308400831778083B
:1009D000831203130A218000F80A840AF70BF12C12
:1009E000F42C83160317E72CFC2C0317EA01EB0108
:1009F000EC01ED01EE01031305308316031792009D
:100A00008312630883169300831203131C22780851
:100A100003175F077F3C03181C2DDF010730831687
:100A200092008312630883169300831203131C221F
:100A3000013078070317E007E6016608043C031C51
:100A4000792DE7010730831692008312630883161D
:100A50009300831203131C227808031767020318FC
:100A6000752D6A306607840083170008831690008E
:100A7000F70083126708F8000319422D0310F70CE2
:100A8000F80B3E2D771C732DE801630868020318EC
:100A9000732DE901630869020318712D69085F0766
:100AA00083169000831267088316920083126308EE
:100AB00083169300831203131C2278080317600720
:100AC00068078316910010089200110893008312A2
:100AD00064088316940083120313C8230317E90ADA
:100AE0004A2DE80A452DE70A222DE60A6308DF07AA
:100AF0001D2DE50ADF0A872C031308000317DC010C
:100B00000313452214300317DF001930E0000130D1
:100B1000E2003130E1000130E300E40003138524FA
:100B200008300317CA00FA30DF0003133823031715
:100B3000CA0B932D03138A150A12702B0317CA01CF
:100B40004A083F3C031CBF2DCB014B087F3C031CD4
:100B5000B82D4B088316920083124A08831693001F
:100B60000130940083120313C8230317CB0AA52D69
:100B70000530DF00031338230317CA0AA02D03131F
:100B8000080028300317DD005D08573C031CDE2DEC
:100B90001E30DE005E08253C031CDC2D5D0883163C
:100BA000920083125E08831693009401831203134C
:100BB000C8230317DE0ACA2DDD0AC42D5C08003ADB
:100BC00003130319EA2D013A0319F82D033A031907
:100BD000072E152E28300317DF001E30E000E2013B
:100BE000EB30E1000130E300E40003138524152E0F
:100BF00028300317DF001E30E0000130E2003C30F7
:100C0000E1000130E300E40003138524152E2830B1
:100C10000317DF001E30E0000130E2004330E10046
:100C20000130E300E4000313852408006430031757
:100C3000DC0003138B23080053300317CA00453030
:100C4000CB004C30CC004530CD004330CE0054308A
:100C5000CF002030D0004430D1004930D20046309F
:100C6000D300D4004930D5004330D6005530D700EA
:100C70004C30D8005430D9005930DA00DB01DC01A7
:100C8000031345220A300317DF00E0000130E200C1
:100C90004A30E1000130E300E400031385247108C9
:100CA0000317DC000313C125A61526088316870049
:100CB0008312871D712E7108013C031C662EF10AF8
:100CC00071080317DC000313C12516260230031731
:100CD000DC009630DF00031338230317DC0B692E8A
:100CE000031326162608831687008312071E8D2EEF
:100CF000F1080319822EF10371080317DC000313B6
:100D0000C125162602300317DC009630DF000313DE
:100D100038230317DC0B852E0313A616260883162B
:100D200087008312871EBD2E710803199E2E013A7B
:100D30000319A32E033A0319A82EAC2EFC3072051A
:100D40000338F200AC2EFC3072050238F200AC2EF3
:100D5000FC3072050138F20064300317DC00031325
:100D60008B2302300317DC009630DF000313382397
:100D70000317DC0BB42EBF2E0313542E03170313DB
:100D80008A150A12762B03174E085002DC005C0805
:100D9000DC1FCC2E5C08003CD7004F085102DC0061
:100DA0005C08DC1FD52E5C08003CD8004E08D30040
:100DB0004F08D4004E0850020318E12EFF30D50032
:100DC000E32E0130D5004F0851020318EA2EFF3000
:100DD000D600EC2E0130D6005808803AF7005708AC
:100DE000803A77020319F62E0318642F0230831617
:100DF00092008312580883169300831203131C2257
:100E0000031757087802FA01F700F71BFA03D90015
:100E10007A08DA00DB01D71B632F5B085702031C3B
:100E2000632F53088316920083125408831693008D
:100E3000831252088316940083120313C8230317E6
:100E4000DA1F3A2F02308316920083125808831655
:100E50009300831203131C227808FA01F700F71B92
:100E6000FA030317D9077A0803187A0FDA07550827
:100E7000D307612F0230831692008312580883161D
:100E80009300831203131C2278080317DC0002303E
:100E9000831692008312570883169300831203135C
:100EA0001C22780803175C02FA01F700F71BFA030B
:100EB000D9077A0803187A0FDA075508D3075608B6
:100EC000D407DB0A0B2FD12F023083169200831236
:100ED000570883169300831203131C220317580824
:100EE0007802FA01F700F71BFA03D9007A08DA0052
:100EF000DB01D81BD12F5B085802031CD12F5308EC
:100F000083169200831254088316930083125208AA
:100F10008316940083120313C8230317DA1FA82F24
:100F200002308316920083125708831693008312AF
:100F300003131C227808FA01F700F71BFA030317C2
:100F4000D9077A0803187A0FDA075608D407CF2F83
:100F5000023083169200831257088316930083127F
:100F600003131C2278080317DC000230831692005A
:100F70008312580883169300831203131C227808E7
:100F800003175C02FA01F700F71BFA03D9077A0886
:100F900003187A0FDA075508D3075608D407DB0A77
:100FA000792F0313080003174B08F8014A020318AE
:100FB000DC2F4A08F700E82FF7010830CC00CA0DF3
:100FC000F70D4B0877020318F700F80DCC0BDF2F55
:040FD00003130800FF
:101000000317CA014A080A3C031C23284A0883160E
:101010009200063093008A11831203131C228A1552
:1010200078080317CB004B08CE00CF014B08D00047
:101030003C30D1000130D2008A110313C3268A1537
:101040000317CA0A0228CC014C080A3C031C452895
:101050004C0883169200063093008A118312031302
:101060001C228A1578080317CD00CE014D08CF0049
:101070003C30D0004D08D1000130D2008A1103135A
:10108000C3268A150317CC0A24280313080041300D
:101090000317CA004A087C3C031C6528CB014B0897
:1010A000133C031C63284A088316920083124B08E2
:1010B0008316930094018A1183120313C8238A159F
:1010C0000317CB0A4F28CA0A4A284130DF00E00143
:1010D000E201E030E1000130E300E4008A11031393
:1010E00085248A1541300317DF000A30E000013003
:1010F000E2001030E1000130E300E4008A11031344
:1011000085248A15080025080317CF000313240837
:101110000317CE00031323080317CD00031322087F
:101120000317CC004130D300C630D2004E30D1007E
:101130006D30D0002030D800D401D501D601D701C0
:101140004F08FA004E08F9004D08F8004C08F70067
:101150000310771CB9285008D40751080318510F01
:10116000D50752080318520FD60753080318530F18
:10117000D707D70CD60CD50CD40CFA0CF90CF80CFC
:10118000F70CD80BA8287A08CF007908CE00780889
:10119000CD007708CC0039304C070313A2000317A9
:1011A0004D080313A300303003183130A307031791
:1011B0004E080313A400003003180130A4070317DE
:1011C0004F080313A500003003180130A5072408B9
:1011D000F7002508F800F901FA0125080317CE00E9
:1011E0007708CD004E08E2004D08E1007F30E400B2
:1011F000FF30E3008A11031364238A157708F8008F
:101200007A08F90008000317CC1B1329CC1B0C2902
:101210004C08093C031C1329CD1B1329CD1B142991
:101220004D08093C031C55294C08831692000630D2
:1012300093008A11831203131C228A150130780748
:101240000317CF004D0883169200063093008A11D1
:10125000831203131C228A15013078070317D0006C
:10126000D1015108043C031C5529D2015208043C09
:10127000031C532951084F07D30052085007D400CC
:101280005308831692008312540883169300831226
:101290004E08831694008A1183120313C8238A15FB
:1012A0000317D20A3629D10A31290313080003177C
:1012B000CA01CA08031DBE29031383207908031736
:1012C000CD007808CC004D08E2004C08E100E401B4
:1012D0000A30E3008A11031364238A157708E800B3
:1012E000832079080317CD007808CC004D08E20070
:1012F0004C08E100E4010A30E3008A11031364237F
:101300008A157708E90001300317CA00CB010313DF
:101310006A0803174B020318BD294B081F3C031C26
:10132000972927304B078400831300089D2920301C
:101330004B02A03E84008313000803136802031DC0
:10134000BA2903174B081F3C031CAC2947304B0735
:10135000840083130008B22920304B02C03E840071
:101360008313000803136902031DBA290317CA0176
:10137000BD2903130317CB0A8729592903136808CA
:101380000317CC00031369080317CD000130CE000A
:10139000031303210800E8300317DC008A1103134C
:1013A0008B238A15C8300317DF008A1103133823F3
:1013B0008A15E8300317DC008A1103138B238A1582
:1013C000C8300317DF008A11031338238A15BC3095
:1013D0000317DC008A1103138B238A15C830031707
:1013E000DF008A11031338238A150530EA00EB0168
:1013F0000230EC00ED0130308316E700E8000230E7
:101400008312E7000317DC018A11031345228A15B2
:1014100019300317DF001E30E0000130E2001A30FF
:10142000E1000130E300E4008A11031385248A15EA
:1014300006300317CA00FA30DF008A11031338237D
:101440008A150317CA0B1B2A8A1103139E258A15B6
:101450000317DC018A11031345228A1500200800B6
:10146000C8300317CA006430CB00CC009030CD00E8
:10147000C830CE009630CF005830D0002C30D1008C
:101480003230D200D3006430D4009630D5006430BE
:10149000D600D7009630D800D901DA015A08073CA7
:1014A000031C6C2A4A305A07840083170008DB00AB
:1014B000DC008A1103138B238A15523003175A0755
:1014C000840083170008DB00DF008A110313382330
:1014D0008A150317DA0A4E2ADC018A110313452202
:1014E0008A1523300317DF00E0000130E2002830C6
:1014F000E1000130E300E4008A11031385248A151A
:101500000A300317CA00FA30DF008A1103133823A8
:101510008A150317CA0B832A8A1103139E258A157D
:101520000317DC018A11031345228A1500200530B8
:10153000EA00EB010230EC00ED0130308316E700E9
:10154000E80002308312E7008A150A12932D03087F
:101550001F398300FF30A6000230E7000530EA00A3
:10156000EB010230EC00ED01EE017014F101831685
:101570001F149F141F159F1107309C0083138312A3
:10158000A001A10153308316E0006330E1006F3009
:10159000E2007230E3006530E4003A30E5002030CC
:1015A000E6003030E700E800E9014230831203171B
:1015B00090006530910073309200743093003A309F
:1015C0009400203095003030960097009801473005
:1015D0009A0041309B004D309C0045309D004F30BB
:1015E0009E0056309F004530A0005230A1002030B0
:1015F000A2002130A300A400A500A6015930A80034
:101600004F30A9005530AA002030AB005730AC0055
:101610004F30AD004E30AE002130AF00B00153303E
:10162000B1004E30B2004130B3004B30B400453011
:10163000B5002030B6004730B7004130B8004D301B
:10164000B9004530BA00BB0183160313EB004130EB
:10165000EC005330ED005930EE00EF014D308312B5
:101660000317BC004530BD004430BE004930BF0008
:101670005530C0004D30C100C2014830C300413078
:10168000C4005230C5004430C600C701073083167D
:101690000313860086118312861501300317CA00D2
:1016A0008A110313BE2A8A150317DC018A1103135A
:1016B00045228A1502300317CA00FA30DF008A116A
:1016C000031338238A150317CA0B5D2B701C792B63
:1016D0006430DC008A1103138B238A158A117E2D56
:1016E0008A158A119E258A158A111C2E8A1570105A
:1016F0000317DC018A11031345228A1500204720B5
:101700005721EF016A086F020318DC2B6F081F3C9A
:10171000031C922B27306F07840083136F086B0222
:1017200080009A2B20306F02A03E840083136F0844
:101730006B0280006F081F3C031CA62B47306F070D
:10174000840083136C0880006C08AD2B20306F027E
:10175000C03E840083136C0880006F081F3C031C8C
:10176000B72B27306F07840083130008BD2B203070
:101770006F02A03E8400831300080317CA000313FE
:101780006F081F3C031CCA2B47306F07840083136C
:101790000008D02B20306F02C03E84008313000865
:1017A0000317CB004A08CC004B08CD000130CE0017
:1017B00003130321EF0A822BA61526088316870040
:1017C0008312871DEB2BE7080319EB2B0330E7008F
:1017D0008A1116268A152615260883168700831275
:1017E000071DFA2B670BF52BFA2B0230E7008A1145
:1017F00016268A15A6142608831687008312871CCE
:101800000A2C6708023C03190A2C0130E7008A11F0
:1018100016268A1526162608831687008312071EA9
:10182000192C6708033C0319192CE7018A111626A5
:101830008A15A6162608831687008312871E242C75
:10184000CB210317662B03136708FC3E03185B2CA0
:10185000043E012EEB08031D322CCB210317662B0F
:10186000342C0313EB03031703135B2CEC08031D49
:101870003E2CCB210317662B402C0313EC030317DC
:1018800003135B2C6C08093C031D4B2CCB21031765
:10189000662B4D2C0313EC0A031703135B2C6B0808
:1018A000093C031D582CCB210317662B5A2C03131C
:1018B000EB0A0317031327080317C800031347088D
:1018C0000317C9000313EF0101306A026F02031806
:1018D0000D2D6F081F3C031C942C27306F07031736
:1018E000CA00CB010318CB0A013003136F071F3C5A
:1018F000031C812C01306F07273E840083130008EE
:10190000882C01306F07E03EA03E8400831300085E
:101910000317CC004A08840083134B1883174C0824
:1019200080004C08B92C031320306F02A03E03172F
:10193000CC00CD010318CD0A013003136F071F3C03
:10194000031CA92C01306F07273E84008313000875
:10195000B02C01306F07E03EA03E840083130008E6
:101960000317CA004C08840083134D1883174A08D4
:10197000800003136F081F3C031CE52C47306F07E2
:101980000317CA00CB010318CB0A013003136F07FA
:101990001F3C031CD22C01306F07473E8400831389
:1019A0000008D92C01306F07E03EC03E840083134D
:1019B00000080317CC004A08840083134B188317D0
:1019C0004C0880004C080A2D031320306F02C03EE3
:1019D0000317CC00CD010318CD0A013003136F07A4
:1019E0001F3C031CFA2C01306F07473E8400831311
:1019F0000008012D01306F07E03EC03E84008313D4
:101A000000080317CA004C08840083134D1883177D
:101A10004A0880000313EF0A642C01306A021F3C5D
:101A2000031C1B2D01306A02273E840083136B08C0
:101A300080006B08232D01306A02E03EA03E840046
:101A400083136B08800001306A021F3C031C312D98
:101A500001306A02473E840083136C0880006C08E2
:101A6000392D01306A02E03EC03E840083136C08C9
:101A70008000EF0101306A026F0203186B2D6F08BE
:101A80001F3C031C492D27306F0784008313000877
:101A90004F2D20306F02A03E8400831300086B029C
:101AA000031D692D6F081F3C031C5C2D47306F0719
:101AB000840083130008622D20306F02C03E840032
:101AC000831300086C02031D692DCB210317662BBD
:101AD0000313EF0A3A2D6B080317CC0003136C08AD
:101AE0000317CD000130CE0003130321031748086C
:101AF000CC004908CD00CE010313032168086B0216
:101B0000031DD72D69086C02031DD72D3230031732
:101B1000DC008A1103138B238A15EA0A6A083F3C0A
:101B20000318962D302A0317662B03135721ED0A4D
:101B30006D080317CA000A30CB008A110313D3279C
:101B40008A157808303E8316E70083126D08031764
:101B5000CA000A30CB008A110313D3278A157708ED
:101B6000303E8316E80083126D086E020318D62DEE
:101B70006D08EE006E080317CA000A30CB008A1108
:101B80000313D3278A157808303E031797000313F1
:101B90006E080317CA000A30CB008A110313D3273B
:101BA0008A157708303E0317980003134720720800
:101BB00003390317CB00E0014B08DF000130E200DE
:101BC0002C30E1008A1103134D238A15790803177D
:101BD000CB007808CA004B08CC00CC0ACC03031910
:101BE000F92DFF30DF008A11031338238A150317FC
:101BF000EE2D4A08DF008A11031338238A15DC2BE7
:101C000063000A108A140A1582072A2C362C422CEB
:021C10004F2C57
:02400E00723FFF
:00000001FF
;PIC16F877A
;CRC=1171  CREATED="30-May-25 22:52"
