:1000000008308A00002800000A108A100A110B3EEE
:1000100003188A0A820000340034003400340034AB
:10002000003400345F3400340034003403340034CE
:100030000334003414343E3414343E341434243441
:100040002A347F342A341234433433340834663447
:100050006134363449345534223450340034053454
:1000600003340034003400341C342234413400346E
:100070000034413422341C340034143408343E3407
:1000800008341434083408343E3408340834003456
:100090005034303400340034083408340834083420
:1000A00008340034603460340034003420341034B8
:1000B0000834043402343E345134493445343E3437
:1000C000043402347F340034003442346134513417
:1000D00049344634223441344934493436341834AE
:1000E000143412347F3410342734453445344534C5
:1000F00039343E34493449344934323401340134DA
:100100007134093407343634493449344934363487
:1001100026344934493449343E3400343634363494
:10012000003400340034563436340034003408349B
:100130001434223441340034143414341434143458
:100140001434003441342234143408340234013479
:100150005134093406343E344134593455345E3414
:100160007E340934093409347E347F3449344934C7
:10017000493436343E3441344134413422347F34BE
:100180004134413441343E347F3449344934493474
:1001900041347F3409340934093401343E34413464
:1001A000413449343A347F340834083408347F34D5
:1001B000003441347F3441340034303440344034EE
:1001C00040343F347F3408341434223441347F3493
:1001D00040344034403440347F3402340C340234F0
:1001E0007F347F340234043408347F343E34413465
:1001F000413441343E347F340934093409340634FF
:100200001E342134213421345E347F3409340934DE
:10021000093476340A148A100A11820726344934C4
:10022000493449343234013401347F3401340134E7
:100230003F344034403440343F341F342034403461
:1002400020341F347F342034103420347F34413440
:1002500022341C34223441340734083470340834D6
:1002600007346134513449344534433400347F34E5
:10027000413400340034023404340834103420345F
:100280000034003441347F34003404340234013407
:100290000234043440344034403440344034003478
:1002A000013402340434003420345434543454348B
:1002B00078347F3444344434443438343834443427
:1002C00044344434443438344434443444347F343F
:1002D00038345434543454341834043404347E34AC
:1002E0000534053408345434543454343C347F34A5
:1002F0000834043404347834003444347D344034D5
:1003000000342034403444343D3400347F341034DD
:10031000283444340034003441347F3440340034D1
:100320007C3404347834043478347C340834043431
:1003300004347834383444344434443438347C34E9
:100340001434143414340834083414341434143485
:100350007C3400347C340834043404344834543459
:10036000543454342034043404343F344434443456
:100370003C344034403420347C341C342034403409
:1003800020341C343C344034303440343C34443425
:1003900028341034283444340C345034503450341D
:1003A0003C344434643454344C34443400340834DD
:1003B000363441344134003400347F340034003466
:1003C00041344134363408340034023401340234C8
:1003D0000434023483165708303C031DF4290610F8
:1003E00083120614F7298316861083128614831647
:1003F0000612831206128316880158088312880099
:1004000083168612831286160230F700F70B062A2F
:10041000000083168612831286128316061083123A
:10042000061083168610831286100800F701F80163
:100430008316520803105318F707F70CF80CD3185B
:10044000F707F70CF80C5319F707F70CF80CD3194A
:10045000F707F70CF80C531AF707F70CF80CD31A38
:10046000F707F70CF80C531BF707F70CF80CD31B26
:10047000F707F70CF80C831208008316C101410836
:10048000073C031C962A061183120611303083168E
:10049000D7004030D8008312EA2131308316D700CC
:1004A0004030D8008312EA2183164108B838C300CF
:1004B0003030D7004308D8008312EA218316410860
:1004C000B838C3003130D7004308D8008312EA217E
:1004D00083160611831206158316C20142083F3C9B
:1004E000031C942AFF30D2004008D3008312162246
:1004F00078088316C3003030D7004308D800831231
:10050000EA21FF308316D2004008D300831216225E
:1005100078088316C3003130D7004308D80083120F
:10052000EA218316C20A6E2AC10A3F2A83120800F2
:100530002610260883168700831207148316861256
:1005400083128612831606108312061083168610F5
:10055000831286108316061183120611303083161B
:10056000D700C030D8008312EA2131308316D7007B
:10057000C030D8008312EA2130308316D7004030D3
:10058000D8008312EA2131308316D7004030D800DA
:100590008312EA2130308316D700B830D800831296
:1005A000EA2131308316D700B830D8008312EA210F
:1005B00083163F0BEA2A3030D7003F30D800831231
:1005C000EA2131308316D7003F30D8008312EA2168
:1005D000F72A83163030D7003E30D8008312EA2144
:1005E00031308316D7003E30D8008312EA218316BB
:1005F000C00183123D228A150A124A283030831620
:10060000D50051083F3C0318092B4030D10231304E
:10061000D5000611831206118316D1135117550800
:10062000D7005108D8008312EA218316520CF70034
:10063000F70CF70C1F30F7057708BF39B838D6002C
:100640005508D7005608D8008312EA2183160611F0
:100650008312061583165508D6005608303C031D34
:10066000362B061083120614392B8316861083123C
:100670008614FF308316880006128312061683162E
:100680008612831286160230F700F70B452B000006
:1006900083168612831286120230F700F70B4E2B58
:1006A000000083168612831286160230F700F70BBD
:1006B000572B0000FF30831688008312080883162A
:1006C000D700861283128612831606108312061034
:1006D000831686108312861083165708F800780850
:1006E000D400530B832B52080739D6000130F70092
:1006F0005608F8000319802B0310F70DF80B7C2B1C
:100700007708D404932B52080739D6000130F7003C
:100710005608F8000319902B0310F70DF80B8C2BDB
:100720007708FF3AD405061183120611831655087F
:10073000D7005108D8008312EA21831606118312CC
:10074000061583165508D7005408D8008312EA21ED
:100750000800831643084502D1005108D11FB22B6F
:100760005108003CCC0044084602D1005108D11F7A
:10077000BB2B5108003CCD004308C8004408C90009
:10078000430845020318C72BFF30CA00C92B0130AC
:10079000CA00440846020318D02BFF30CB00D22BEE
:1007A0000130CB004D08803AF7004C08803A7702C0
:1007B0000319DC2B0318342C0230D2004D08D3006F
:1007C0008312162283164C087802FA01F700F71BF1
:1007D000FA03CE007A08CF00D001CC1B332C50088E
:1007E0004C02031C332C4808D1004908D2004708AA
:1007F000D3008312FE228316CF1F122C0230D200A8
:100800004D08D300831216227808FA01F700F71B6F
:10081000FA038316CE077A0803187A0FCF074A081F
:10082000C807312C0230D2004D08D30083121622A3
:1008300078088316D1000230D2004C08D30083120E
:100840001622780883165102FA01F700F71BFA0303
:10085000CE077A0803187A0FCF074A08C8074B0853
:10086000C907D00AED2B8B2C0230D2004C08D300E4
:100870008312162283164D087802FA01F700F71B3F
:10088000FA03CE007A08CF00D001CD1B8B2C500884
:100890004D02031C8B2C4808D1004908D2004708A0
:1008A000D3008312FE228316CF1F6A2C0230D2009F
:1008B0004C08D300831216227808FA01F700F71BC0
:1008C000FA038316CE077A0803187A0FCF074B086E
:1008D000C907892C0230D2004C08D300831216229B
:1008E00078088316D1000230D2004D08D30083125D
:1008F0001622780883165102FA01F700F71BFA0353
:10090000CE077A0803187A0FCF074A08C8074B08A2
:10091000C907D00A452C831208008316BF013F087F
:100920000A3C031CAA2C3F08D2000630D3008312D5
:10093000162278088316C0004008C300C40140088E
:10094000C5003C30C6000130C7008312A9238316BE
:10095000BF0A8F2CC10141080A3C031CC62C410868
:10096000D2000630D3008312162278088316C20004
:10097000C3014208C4003C30C5004208C600013033
:10098000C7008312A9238316C10AAB2C8312080067
:10099000C2308400831300080319DC2C0530F800F2
:1009A000F701F70BD12CF80BD02C2E30F700F70BFA
:1009B000D72CDA2C800BCE2C08008316C5014508F5
:1009C0004107840083134218831780080319B22D4E
:1009D0004508410784008313421883170008523CDE
:1009E000031C162D45084107840083134218831702
:1009F00020300002D000D2000530D300831216222E
:100A000078088316CF00F8000530F700CA3084005C
:100A100083137808831204208000F80A840AF70BF5
:100A2000122D142D8316092D4A2D831645084107D2
:100A3000840083134218831700087E3C031C442D56
:100A4000450841078400831342188317533000027E
:100A5000D000D2000530D300831216227808831606
:100A6000CF00F8000530F700CA30840083137808FF
:100A700083120A218000F80A840AF70B402D422DC8
:100A80008316372D4A2D8316CA01CB01CC01CD0127
:100A9000CE01831205308316D2004308D30083129F
:100AA0001622780883163F077F3C0318622DBF018A
:100AB0000730D2004308D300831216220130780792
:100AC0008316C007C6014608043C031CAF2DC701AE
:100AD0000730D2004308D300831216227808831609
:100AE00047020318AB2DCA30460784008313000861
:100AF000CF00F7004708F8000319822D0310F70C08
:100B0000F80B7E2D771CA92DC80143084802031855
:100B1000A92DC901430849020318A72D49083F0719
:100B2000CF004708D2004308D3008312162278086A
:100B3000831640074807D0004F08D1005008D20064
:100B40004408D3008312FE228316C90A8A2DC80ADC
:100B5000852DC70A682DC60A4308BF07632DC50A3D
:100B6000BF0ADF2C8312080041308316BF00C0018A
:100B70003C30C1000A30C2003F08C30041083F07B3
:100B800043020318D62D4008C4004208400744021F
:100B90000318D42D4308D1004408D200D301831296
:100BA000FE228316C40AC52DC30ABE2D4130BF00E4
:100BB000C001C201A330C1000130C300C4008312D0
:100BC000DD240800F801F901F701FA01831647084E
:100BD000031DED2D46080319072E1030C800031021
:100BE000C40DC50DF70DFA0D47087A02031DFA2D45
:100BF00046087702031C032E4608F702031CFA037B
:100C00004708FA020314F80DF90DC80BEF2D8312F3
:100C1000080025088316C400831224088316C30025
:100C2000831223088316C200831222088316C10090
:100C30004130C800C630C7004E30C6006D30C50018
:100C40002030CD00C901CA01CB01CC014408FA0013
:100C50004308F9004208F8004108F7000310771C28
:100C60003F2E4508C90746080318460FCA0747081C
:100C70000318470FCB0748080318480FCC07CC0CC4
:100C8000CB0CCA0CC90CFA0CF90CF80CF70CCD0BF8
:100C90002E2E7A08C4007908C3007808C2007708AD
:100CA000C100393041078312A20083164208831223
:100CB000A300303003183130A30783164308831292
:100CC000A400003003180130A407831644088312DF
:100CD000A500003003180130A5072408F7002508F7
:100CE000F800F901FA0125088316C3007708C2004D
:100CF0004308C5004208C4007F30C700FF30C6006B
:100D00008312E2257708F8007A08F90008008316B4
:100D10004108D2000630D300831216220130780732
:100D20008316C4004208D2000630D3008312162274
:100D3000013078078316C500C6014608043C031C31
:100D4000B92EC7014708043C031CB72E46084407C8
:100D5000C80047084507C9004808D1004908D20023
:100D60004308D3008312FE228316C70AA22EC60AA6
:100D70009D2E831208008316BF01BF08031D032F99
:100D80008312092679088316C2007808C100420838
:100D9000C5004108C400C7010A30C6008312E2251D
:100DA0007708FC00092679088316C2007808C1007C
:100DB0004208C5004108C400C7010A30C6008312BA
:100DC000E2257708FD0001308316BF00C0017E08D0
:100DD00040020318022F0310400D273E84008313A6
:100DE0007C080002031D002F0310400D013E273E2A
:100DF000840083137D080002031D002FBF01022F12
:100E0000C00AE72EBD2E7C08C1007D08C20001305B
:100E1000C3008312872608000A30FE0001308316C3
:100E2000A0000230A100A2013030AB00AA000230C5
:100E3000FB00C00183123D228D2419308316BF00B0
:100E40003C30C000C201AE30C1000130C300C4005C
:100E50008312DD2404308316BF00FA30C2008312EF
:100E6000C8248316BF0B2D2F831208008316400859
:100E7000F8013F0203183F2F3F08F7004B2FF701FF
:100E80000830C100BF0DF70D400877020318F700C6
:0A0E9000F80DC10B422F8312080079
:1010000003081F398300FF30A6000230FB000A30BE
:10101000FE0001308316A0000230A100A2011F14BF
:101020009F141F159F1107309C0083138312A0018A
:10103000A10153308316A3006330A4006F30A500D4
:101040007230A6006530A7003A30A8002030A90011
:101050003030AA00AB00AC014730AE004130AF00E9
:101060004D30B0004530B1002030B2004F30B300F9
:101070005630B4004530B5005230B6002030B700CD
:101080002130B800B900BA00BB010130BF008A119D
:101090008312982A8A158316C0018A1183123D2271
:1010A0008A158A118D248A1502308316BF00FA3002
:1010B000C2008A118312C8248A158316BF0B5728D1
:1010C000C0018A1183123D228A158A118D248A1546
:1010D0008A11B4258A158A11BB268A158316BC018C
:1010E0007E083C020318A42803103C0D273E840010
:1010F000831301307E02F8003C0878022002800051
:1011000003103C0D013E273E84008313210880001C
:1011100003103C0D273E840083130008BF0003101A
:101120003C0D013E273E840083130008C0003F08A9
:10113000C1004008C2000130C3008A118312872613
:101140008A158316BC0A70288312A61526088316F2
:1011500087008312871DB128FB080319B1280330CB
:10116000FB0026152608831687008312071DBD285D
:101170007B0BBB28BD280230FB00A6142608831673
:1011800087008312871CCA287B08023C0319CA28DF
:101190000130FB0026162608831687008312071EDF
:1011A000D5287B08033C031DFB01A61626088316E1
:1011B00087008312871EE2288A110C278A1583165E
:1011C000602883127B08FC3E03182129043E0D2A67
:1011D0008316A008031DF3288A1183120C278A1591
:1011E00083166028F428A003831221298316A108FE
:1011F000031D01298A1183120C278A158316602882
:101200000229A1038312212983162108093C031D09
:1012100010298A1183120C278A1583166028112938
:10122000A10A8312212983162008093C031D1F29C6
:101230008A1183120C278A15831660282029A00A98
:10124000831227088316BD00831228088316BE0068
:10125000BC0101307E023C020318642903103C0DDE
:10126000273EBF00C0010318C00A01303C07F70049
:101270000310F70D7708273E840083130008C10090
:101280003F0884008313401883174108800003102F
:101290003C0D013E273EBF00C0010318C00A0130CB
:1012A0003C07F7000310F70D7708013E273E840046
:1012B00083130008C1003F0884008313401883177C
:1012C00041088000BC0A292901307E02F700031082
:1012D000F70D7708273E8400831320088000013033
:1012E0007E02F7000310F70D7708013E273E8400C9
:1012F000831321088000BC0101307E023C020318E8
:101300009C2903103C0D273E840083132008000213
:10131000031D9A2903103C0D013E273E84008313D0
:1013200021080002031D9A298A1183120C278A15AD
:1013300083166028BC0A7C292008C1002108C2004D
:101340000130C3008A11831287268A1583163D084F
:10135000C1003E08C200C3018A11831287268A1584
:101360007C0883162002031DE7297D082102031D46
:10137000E729FE0A7E08613C0318C4298A118312FA
:101380000C278A15831660288A118312BB268A15BA
:101390008316A20A2208BF000A30C0008A118312F5
:1013A00036278A157808303E8316AA002208BF0027
:1013B0000A30C0008A11831236278A157708303E1A
:1013C0008316AB008A118312B4258A158316133055
:1013D000C5008830C400C7017E08C6008A11831288
:1013E000E2258A1579088316C0007808BF004008F6
:1013F000C100C10AC1030319052AFF30C2008A11C6
:101400008312C8248A158316FA293F08C2008A115C
:101410008312C8248A15A52863000A108A140A11A9
:0A1420008207E828F62804291329A2
:02400E00723FFF
:00000001FF
;PIC16F877A
;CRC=DB1A  CREATED="24-May-25 16:00"
