:1000000008308A00002800000A108A100A110B3EEE
:1000100003188A0A820000340034003400340034AB
:10002000003400345F3400340034003403340034CE
:100030000334003414343E3414343E341434243441
:100040002A347F342A341234433433340834663447
:100050006134363449345534223450340034053454
:1000600003340034003400341C342234413400346E
:100070000034413422341C340034143408343E3407
:1000800008341434083408343E3408340834003456
:100090005034303400340034083408340834083420
:1000A00008340034603460340034003420341034B8
:1000B0000834043402343E345134493445343E3437
:1000C000043402347F340034003442346134513417
:1000D00049344634223441344934493436341834AE
:1000E000143412347F3410342734453445344534C5
:1000F00039343E34493449344934323401340134DA
:100100007134093407343634493449344934363487
:1001100026344934493449343E3400343634363494
:10012000003400340034563436340034003408349B
:100130001434223441340034143414341434143458
:100140001434003441342234143408340234013479
:100150005134093406343E344134593455345E3414
:100160007E340934093409347E347F3449344934C7
:10017000493436343E3441344134413422347F34BE
:100180004134413441343E347F3449344934493474
:1001900041347F3409340934093401343E34413464
:1001A000413449343A347F340834083408347F34D5
:1001B000003441347F3441340034303440344034EE
:1001C00040343F347F3408341434223441347F3493
:1001D00040344034403440347F3402340C340234F0
:1001E0007F347F340234043408347F343E34413465
:1001F000413441343E347F340934093409340634FF
:100200001E342134213421345E347F3409340934DE
:10021000093476340A148A100A11820726344934C4
:10022000493449343234013401347F3401340134E7
:100230003F344034403440343F341F342034403461
:1002400020341F347F342034103420347F34413440
:1002500022341C34223441340734083470340834D6
:1002600007346134513449344534433400347F34E5
:10027000413400340034023404340834103420345F
:100280000034003441347F34003404340234013407
:100290000234043440344034403440344034003478
:1002A000013402340434003420345434543454348B
:1002B00078347F3444344434443438343834443427
:1002C00044344434443438344434443444347F343F
:1002D00038345434543454341834043404347E34AC
:1002E0000534053408345434543454343C347F34A5
:1002F0000834043404347834003444347D344034D5
:1003000000342034403444343D3400347F341034DD
:10031000283444340034003441347F3440340034D1
:100320007C3404347834043478347C340834043431
:1003300004347834383444344434443438347C34E9
:100340001434143414340834083414341434143485
:100350007C3400347C340834043404344834543459
:10036000543454342034043404343F344434443456
:100370003C344034403420347C341C342034403409
:1003800020341C343C344034303440343C34443425
:1003900028341034283444340C345034503450341D
:1003A0003C344434643454344C34443400340834DD
:1003B000363441344134003400347F340034003466
:1003C00041344134363408340034023401340234C8
:1003D0000434023483166308303C031DF4290610EC
:1003E00083120614F7298316861083128614831647
:1003F000061283120612831688016408831288008D
:1004000083168612831286160230F700F70B062A2F
:10041000000083168612831286128316061083123A
:10042000061083168610831286100800F701F80163
:1004300083165E0803105F18F707F70CF80CDF1837
:10044000F707F70CF80C5F19F707F70CF80CDF1932
:10045000F707F70CF80C5F1AF707F70CF80CDF1A20
:10046000F707F70CF80C5F1BF707F70CF80CDF1B0E
:10047000F707F70CF80C831208008316CD014D081E
:10048000073C031C962A061183120611303083168E
:10049000E3004030E4008312EA2131308316E300A8
:1004A0004030E4008312EA2183164D08B838CF00AB
:1004B0003030E3004F08E4008312EA2183164D0830
:1004C000B838CF003130E3004F08E4008312EA214E
:1004D00083160611831206158316CE014E083F3C83
:1004E000031C942AFF30DE004C08DF008312162222
:1004F00078088316CF003030E3004F08E400831201
:10050000EA21FF308316DE004C08DF00831216223A
:1005100078088316CF003130E3004F08E4008312DF
:10052000EA218316CE0A6E2ACD0A3F2A83120800DA
:100530002610260883168700831207148316861256
:1005400083128612831606108312061083168610F5
:10055000831286108316061183120611303083161B
:10056000E300C030E4008312EA2131308316E30057
:10057000C030E4008312EA2130308316E3004030BB
:10058000E4008312EA2131308316E3004030E400B6
:100590008312EA2130308316E300B830E40083127E
:1005A000EA2131308316E300B830E4008312EA21F7
:1005B00083164B0BEA2A3030E3003F30E40083120D
:1005C000EA2131308316E3003F30E4008312EA2150
:1005D000F72A83163030E3003E30E4008312EA212C
:1005E00031308316E3003E30E4008312EA218316A3
:1005F000CC0183123D228A150A125C283030831602
:10060000E1005D083F3C0318092B4030DD0231302A
:10061000E1000611831206118316DD135D176108D0
:10062000E3005D08E4008312EA2183165E0CF70004
:10063000F70CF70C1F30F7057708BF39B838E20020
:100640006108E3006208E4008312EA2183160611C0
:100650008312061583166108E2006208303C031D10
:10066000362B061083120614392B8316861083123C
:100670008614FF308316880006128312061683162E
:100680008612831286160230F700F70B452B000006
:1006900083168612831286120230F700F70B4E2B58
:1006A000000083168612831286160230F700F70BBD
:1006B000572B0000FF30831688008312080883162A
:1006C000E300861283128612831606108312061028
:1006D000831686108312861083166308F800780844
:1006E000E0005F0B832B5E080739E2000130F70062
:1006F0006208F8000319802B0310F70DF80B7C2B10
:100700007708E004932B5E080739E2000130F70018
:100710006208F8000319902B0310F70DF80B8C2BCF
:100720007708FF3AE0050611831206118316610867
:10073000E3005D08E4008312EA21831606118312A8
:10074000061583166108E3006008E4008312EA21BD
:10075000080083164F085102DD005D08DD1FB22B33
:100760005D08003CD80050085202DD005D08DD1F26
:10077000BB2B5D08003CD9004F08D4005008D500C1
:100780004F0851020318C72BFF30D600C92B013088
:10079000D600500852020318D02BFF30D700D22BBE
:1007A0000130D7005908803AF7005808803A77029C
:1007B0000319DC2B0318342C0230DE005908DF004B
:1007C00083121622831658087802FA01F700F71BE5
:1007D000FA03DA007A08DB00DC01D81B332C5C0852
:1007E0005802031C332C5408DD005508DE00530862
:1007F000DF008312FE228316DB1F122C0230DE0084
:100800005908DF00831216227808FA01F700F71B57
:10081000FA038316DA077A0803187A0FDB075608FB
:10082000D407312C0230DE005908DF008312162273
:1008300078088316DD000230DE005808DF008312DE
:100840001622780883165D02FA01F700F71BFA03F7
:10085000DA077A0803187A0FDB075608D407570817
:10086000D507DC0AED2B8B2C0230DE005808DF00A8
:1008700083121622831659087802FA01F700F71B33
:10088000FA03DA007A08DB00DC01D91B8B2C5C0848
:100890005902031C8B2C5408DD005508DE00530858
:1008A000DF008312FE228316DB1F6A2C0230DE007B
:1008B0005808DF00831216227808FA01F700F71BA8
:1008C000FA038316DA077A0803187A0FDB0757084A
:1008D000D507892C0230DE005808DF00831216226B
:1008E00078088316DD000230DE005908DF0083122D
:1008F0001622780883165D02FA01F700F71BFA0347
:10090000DA077A0803187A0FDB075608D407570866
:10091000D507DC0A452C831208008316CB014B084F
:100920000A3C031CAA2C4B08DE000630DF008312B1
:10093000162278088316CC004C08CF00D0014C0852
:10094000D1003C30D2000130D3008312A92383169A
:10095000CB0A8F2CCD014D080A3C031CC62C4D0838
:10096000DE000630DF008312162278088316CE00E0
:10097000CF014E08D0003C30D1004E08D2000130EB
:10098000D3008312A9238316CD0AAB2C831208004F
:10099000CC308400831300080319DC2C0530F800E8
:1009A000F701F70BD12CF80BD02C2E30F700F70BFA
:1009B000D72CDA2C800BCE2C08008316D1015108DD
:1009C0004D07840083134E18831780080319B22D36
:1009D00051084D07840083134E1883170008523CBA
:1009E000031C162D51084D07840083134E188317DE
:1009F00020300002DC00DE000530DF00831216220A
:100A000078088316DB00F8000530F700D630840044
:100A100083137808831204208000F80A840AF70BF5
:100A2000122D142D8316092D4A2D831651084D07BA
:100A3000840083134E18831700087E3C031C442D4A
:100A400051084D07840083134E188317533000025A
:100A5000DC00DE000530DF008312162278088316E2
:100A6000DB00F8000530F700D630840083137808E7
:100A700083120A218000F80A840AF70B402D422DC8
:100A80008316372D4A2D8316D601D701D801D901F7
:100A9000DA01831205308316DE004F08DF0083126F
:100AA0001622780883164B077F3C0318622DCB0172
:100AB0000730DE004F08DF0083121622013078076E
:100AC0008316CC07D2015208043C031CAF2DD3017E
:100AD0000730DE004F08DF008312162278088316E5
:100AE00053020318AB2DD63052078400831300083D
:100AF000DB00F7005308F8000319822D0310F70CF0
:100B0000F80B7E2D771CA92DD4014F085402031831
:100B1000A92DD5014F0855020318A72D55084B07DD
:100B2000DB005308DE004F08DF008312162278082E
:100B300083164C075407DC005B08DD005C08DE0010
:100B40005008DF008312FE228316D50A8A2DD40AAC
:100B5000852DD30A682DD20A4F08CB07632DD10A01
:100B6000CB0ADF2C8312080041308316CB004B08E0
:100B70007C3C031CCC2DCC014C08133C031CCA2D1F
:100B80004B08DD004C08DE00DF018312FE228316D5
:100B9000CC0ABC2DCB0AB72D4130CB00CC01CE0105
:100BA000A530CD000130CF00D0008312DD244130CC
:100BB0008316CB000A30CC00CE01B030CD0001301E
:100BC000CF00D0008312DD240800F801F901F701FD
:100BD000FA0183165308031DF02D520803190A2E3B
:100BE0001030D4000310D00DD10DF70DFA0D5308BD
:100BF0007A02031DFD2D52087702031C062E5208AF
:100C0000F702031CFA035308FA020314F80DF90D56
:100C1000D40BF22D8312080025088316D00083120E
:100C200024088316CF00831223088316CE00831274
:100C300022088316CD004130D400C630D3004E3098
:100C4000D2006D30D1002030D900D501D601D701B6
:100C5000D8015008FA004F08F9004E08F8004D0876
:100C6000F7000310771C422E5108D50752080318CD
:100C7000520FD60753080318530FD7075408031809
:100C8000540FD807D80CD70CD60CD50CFA0CF90C8D
:100C9000F80CF70CD90B312E7A08D0007908CF0068
:100CA0007808CE007708CD0039304D078312A200B6
:100CB00083164E088312A300303003183130A30787
:100CC00083164F088312A400003003180130A407D4
:100CD000831650088312A500003003180130A507C1
:100CE0002408F7002508F800F901FA012508831601
:100CF000CF007708CE004F08D1004E08D0007F30DB
:100D0000D300FF30D2008312E5257708F8007A0877
:100D1000F900080083164D08DE000630DF0083125C
:100D20001622013078078316D0004E08DE00063008
:100D3000DF0083121622013078078316D100D2011A
:100D40005208043C031CBC2ED3015308043C031C72
:100D5000BA2E52085007D40053085107D500540842
:100D6000DD005508DE004F08DF008312FE228316E7
:100D7000D30AA52ED20AA02E831208008316CB0117
:100D8000CB08031D062F83120C2679088316CE008C
:100D90007808CD004E08D1004D08D000D3010A30AC
:100DA000D2008312E5257708FC000C26790883160B
:100DB000CE007808CD004E08D1004D08D000D301F8
:100DC0000A30D2008312E5257708FD000130831632
:100DD000CB00CC017E084C020318052F03104C0DEC
:100DE000273E840083137C080002031D032F031099
:100DF0004C0D013E273E840083137D080002031D35
:100E0000032FCB01052FCC0AEA2EC02E7C08CD0083
:100E10007D08CE000130CF0083128A2608000330FF
:100E2000FE0001308316A0000230A100A201A4013F
:100E30003030AD00AC000230FB00CC0183123D220B
:100E40008D2419308316CB003C30CC00CE01BA3053
:100E5000CD000130CF00D0008312DD240430831692
:100E6000CB00FA30CC008312C8248316CB0B312F71
:100E70008312080083164C08F8014B020318432F15
:100E80004B08F7004F2FF7010830CD00CB0DF70DC1
:100E90004C0877020318F700F80DCD0B462F83128C
:020EA000080048
:1010000003081F398300FF30A6000230FB000330C5
:10101000FE0001308316A0000230A100A201A3014E
:10102000A4011F149F141F159F1107309C008313E8
:101030008312A001A10153308316A5006330A600DE
:101040006F30A7007230A8006530A9003A30AA00BE
:101050002030AB003030AC00AD00AE014230B0000B
:101060006530B1007330B2007430B3003A30B40070
:101070002030B5003030B600B700B8014730BA00B4
:101080004130BB004D30BC004530BD002030BE00BB
:101090004F30BF005630C0004530C1005230C20052
:1010A0002030C3002130C400C500C600C701013094
:1010B000CB008A118312982A8A158316CC018A11D3
:1010C00083123D228A158A118D248A1502308316D7
:1010D000CB00FA30CC008A118312C8248A158316FB
:1010E000CB0B6928CC018A1183123D228A158A1103
:1010F0008D248A158A11B4258A158A11BE268A156F
:101100008316C8017E0848020318B6280310480D4C
:10111000273E8400831301307E02F80048087802DD
:10112000200280000310480D013E273E84008313F7
:10113000210880000310480D273E84008313000817
:10114000CB000310480D013E273E840083130008A6
:10115000CC004B08CD004C08CE000130CF008A11E6
:1011600083128A268A158316C80A82288312A61536
:101170002608831687008312871DC328FB080319DE
:10118000C3280330FB002615260883168700831228
:10119000071DCF287B0BCD28CF280230FB00A614DB
:1011A0002608831687008312871CDC287B08023CF4
:1011B0000319DC280130FB00261626088316870059
:1011C0008312071EE7287B08033C031DFB01A616BC
:1011D0002608831687008312871EF4288A110F279A
:1011E0008A158316722883127B08FC3E0318332964
:1011F000043E202A8316A008031D05298A118312A4
:101200000F278A15831672280629A0038312332913
:101210008316A108031D13298A1183120F278A152B
:10122000831672281429A1038312332983162108F7
:10123000093C031D22298A1183120F278A15831660
:1012400072282329A10A8312332983162008093C16
:10125000031D31298A1183120F278A1583167228DC
:101260003229A00A831227088316C900831228088E
:101270008316CA00C80101307E024802031876298D
:101280000310480D273ECB00CC010318CC0A0130D7
:101290004807F7000310F70D7708273E84008313F3
:1012A0000008CD004B08840083134C1883174D08A9
:1012B00080000310480D013E273ECB00CC010318EF
:1012C000CC0A01304807F7000310F70D7708013EFC
:1012D000273E840083130008CD004B08840083134D
:1012E0004C1883174D088000C80A3B2901307E0244
:1012F000F7000310F70D7708273E840083132008BA
:10130000800001307E02F7000310F70D7708013EE0
:10131000273E8400831321088000C80101307E022B
:1013200048020318AE290310480D273E840083139A
:1013300020080002031DAC290310480D013E273E82
:101340008400831321080002031DAC298A11831233
:101350000F278A1583167228C80A8E292008CD0007
:101360002108CE000130CF008A1183128A268A1507
:101370008316A4080319BE29A403C8294908CD006F
:101380004A08CE00CF018A1183128A268A15831655
:101390007C082002031D132A7D082102031D132A45
:1013A000FE0AA40A8A118312BE268A158316A20A8F
:1013B0002208CB000A30CC008A1183123A278A1502
:1013C0007808303E8316AC002208CB000A30CC00EF
:1013D0008A1183123A278A157708303E8316AD00AA
:1013E0002208230203180E2A2208A3002308CB0098
:1013F0000A30CC008A1183123A278A157808303EC9
:101400008316B7002308CB000A30CC008A11831260
:101410003A278A157708303E8316B8008A1183125E
:10142000B4258A1583160330CB00C830CC008A114E
:101430008312C8248A158316CB0B152AB62863009D
:101440000A108A140A118207FA2808291629252960
:02400E00723FFF
:00000001FF
;PIC16F877A
;CRC=AB83  CREATED="25-May-25 14:06"
