:1000000009308A00DC2900000A108A100A110B3E10
:1000100003188A0A820000340034003400340034AB
:10002000003400345F3400340034003403340034CE
:100030000334003414343E3414343E341434243441
:100040002A347F342A341234433433340834663447
:100050006134363449345534223450340034053454
:1000600003340034003400341C342234413400346E
:100070000034413422341C340034143408343E3407
:1000800008341434083408343E3408340834003456
:100090005034303400340034083408340834083420
:1000A00008340034603460340034003420341034B8
:1000B0000834043402343E345134493445343E3437
:1000C000043402347F340034003442346134513417
:1000D00049344634223441344934493436341834AE
:1000E000143412347F3410342734453445344534C5
:1000F00039343E34493449344934323401340134DA
:100100007134093407343634493449344934363487
:1001100026344934493449343E3400343634363494
:10012000003400340034563436340034003408349B
:100130001434223441340034143414341434143458
:100140001434003441342234143408340234013479
:100150005134093406343E344134593455345E3414
:100160007E340934093409347E347F3449344934C7
:10017000493436343E3441344134413422347F34BE
:100180004134413441343E347F3449344934493474
:1001900041347F3409340934093401343E34413464
:1001A000413449343A347F340834083408347F34D5
:1001B000003441347F3441340034303440344034EE
:1001C00040343F347F3408341434223441347F3493
:1001D00040344034403440347F3402340C340234F0
:1001E0007F347F340234043408347F343E34413465
:1001F000413441343E347F340934093409340634FF
:100200001E342134213421345E347F3409340934DE
:10021000093476340A148A100A11820726344934C4
:10022000493449343234013401347F3401340134E7
:100230003F344034403440343F341F342034403461
:1002400020341F347F342034103420347F34413440
:1002500022341C34223441340734083470340834D6
:1002600007346134513449344534433400347F34E5
:10027000413400340034023404340834103420345F
:100280000034003441347F34003404340234013407
:100290000234043440344034403440344034003478
:1002A000013402340434003420345434543454348B
:1002B00078347F3444344434443438343834443427
:1002C00044344434443438344434443444347F343F
:1002D00038345434543454341834043404347E34AC
:1002E0000534053408345434543454343C347F34A5
:1002F0000834043404347834003444347D344034D5
:1003000000342034403444343D3400347F341034DD
:10031000283444340034003441347F3440340034D1
:100320007C3404347834043478347C340834043431
:1003300004347834383444344434443438347C34E9
:100340001434143414340834083414341434143485
:100350007C3400347C340834043404344834543459
:10036000543454342034043404343F344434443456
:100370003C344034403420347C341C342034403409
:1003800020341C343C344034303440343C34443425
:1003900028341034283444340C345034503450341D
:1003A0003C344434643454344C34443400340834DD
:1003B000363441344134003400347F340034003466
:1003C00041344134363408340034023401340234C8
:1003D00004340234831603171808303C031DF72930
:1003E0000313061083120614FB2983160317031345
:1003F0008610831286148316061283120612831641
:1004000088010317190883120313880083168612C4
:10041000831286160230F700F70B0C2A00008316B1
:100420008612831286128316061083120610831614
:100430008610831286100800F701F801831603174F
:10044000120803101318F707F70CF80C9318F707A6
:10045000F70CF80C1319F707F70CF80C9319F707BA
:10046000F70CF80C131AF707F70CF80C931AF707A8
:10047000F70CF80C131BF707F70CF80C931BF70796
:10048000F70CF80C8312031308000317DD015D0855
:10049000073C031CBC2A83160313061183120611A2
:1004A00030308316031798004030990083120313ED
:1004B000EA213130831603179800403099008312E7
:1004C0000313EA2103175D08B838DF0030308316C4
:1004D000980083125F088316990083120313EA21A0
:1004E00003175D08B838DF00313083169800831297
:1004F0005F088316990083120313EA2183160611FD
:10050000831206150317DE015E083F3C031CBA2A5E
:10051000FF308316920083125C08831693008312C7
:1005200003131C2278080317DF003030831698006D
:1005300083125F088316990083120313EA21FF30A8
:1005400083160317920083125C08831693008312AC
:1005500003131C2278080317DF003130831698003C
:1005600083125F088316990083120313EA2103178D
:10057000DE0A842ADD0A472A03130800261026080B
:10058000831687008312071483168612831286123D
:1005900083160610831206108316861083128610A7
:1005A0008316061183120611303083160317980044
:1005B000C030990083120313EA21313083160317E8
:1005C0009800C030990083120313EA21303083165B
:1005D000031798004030990083120313EA21313049
:1005E0008316031798004030990083120313EA2101
:1005F0003030831603179800B83099008312031324
:10060000EA213130831603179800B830990083121D
:100610000313EA2103174A0B202B3030831698006E
:100620003F30990083120313EA21313083160317F8
:1006300098003F30990083120313EA21312B0317EE
:100640003030831698003E30990083120313EA215C
:1006500031308316031798003E309900831203133C
:10066000EA210317DC01031345228A150A12802AA6
:100670005D3084008317000803194C2B0530F80007
:10068000F701F70B412BF80B402B2E30F700F70B3F
:10069000472B4A2B800B3E2B080030308316031764
:1006A000960012083F3C0318592B4030920231301B
:1006B0009600031306118312061183160317921373
:1006C0001217160898001208990083120313EA21E2
:1006D00083160317130CF700F70CF70C1F30F70500
:1006E0007708BF39B838970016089800170899009E
:1006F00083120313EA21831606118312061583164B
:100700000317160897001708303C031D8E2B0313A0
:10071000061083120614922B8316031703138610F8
:1007200083128614FF308316880006128312061681
:1007300083168612831286160230F700F70B9E2B63
:10074000000083168612831286120230F700F70B20
:10075000A72B000083168612831286160230F7003C
:10076000F70BB02B0000FF308316880083120808B7
:1007700083160317980003138612831286128316BA
:1007800006108312061083168610831286108316B5
:1007900003171808F80078089500140BDF2B1308CE
:1007A000073997000130F7001708F8000319DC2B10
:1007B0000310F70DF80BD82B77089504EF2B1308CF
:1007C000073997000130F7001708F8000319EC2BE0
:1007D0000310F70DF80BE82B7708FF3A9505031384
:1007E00006118312061183160317160898001208C3
:1007F000990083120313EA2183160611831206154A
:10080000831603171608980015089900831203131E
:10081000EA2108000317E5016508610784008313D6
:100820006218831780080319012D65086107840089
:100830008313621883170008523C031C482C650878
:100840006107840083136218831720300002831627
:100850009100920005309300831203131C22780844
:10086000831603179000F8000530F7006A30840003
:10087000831778088312031304208000F80A840A7F
:10088000F70B432C462C83160317392C812C0317A6
:1008900065086107840083136218831700087E3C93
:1008A000031C7B2C6508610784008313621883177F
:1008B000533000028316910092000530930083129A
:1008C00003131C227808831603179000F8000530E4
:1008D000F7006A30840083177808831203130A2113
:1008E0008000F80A840AF70B762C792C83160317FC
:1008F0006C2C812C0317EA01EB01EC01ED01EE01F8
:1009000003130530831603179200831263088316BE
:100910009300831203131C22780803175F077F3CA0
:100920000318A12CDF01073083169200831263089D
:1009300083169300831203131C22013078070317D8
:10094000E007E6016608043C031CFE2CE7010730C3
:100950008316920083126308831693008312031395
:100960001C227808031767020318FA2C6A306607FE
:1009700084008317000883169000F700831267082D
:10098000F8000319C72C0310F70CF80BC32C771CC5
:10099000F82CE801630868020318F82CE9016308E1
:1009A00069020318F62C69085F078316900083120A
:1009B00067088316920083126308831693008312DC
:1009C00003131C2278080317600768078316910039
:1009D0001008920011089300831264088316940093
:1009E000831203134D230317E90ACF2CE80ACA2CFC
:1009F000E70AA72CE60A6308DF07A22CE50ADF0A4C
:100A00000C2C031308000317DC01031345221430D8
:100A10000317DF001930E0000130E2003130E1005F
:100A20000130E300E40003130A2408300317CA006E
:100A3000FA30DD00031338230317CA0B182D0313F4
:100A40008A150A12982A0317CA014A083F3C031C58
:100A5000442DCB014B087F3C031C3D2D4B088316D6
:100A6000920083124A088316930001309400831287
:100A700003134D230317CB0A2A2D0530DD00031382
:100A800038230317CA0A252D03130800283003173B
:100A9000DD005D08573C031C632D1E30DE005E0840
:100AA000253C031C612D5D088316920083125E08AD
:100AB000831693009401831203134D230317DE0A58
:100AC0004F2DDD0A492D5C08003A031303196F2DE1
:100AD000013A03197D2D033A03198C2D9A2D2830E4
:100AE0000317DF001E30E000E201EB30E1000130CF
:100AF000E300E40003130A249A2D28300317DF00D3
:100B00001E30E0000130E2003C30E1000130E30043
:100B1000E40003130A249A2D28300317DF001E3047
:100B2000E0000130E2004330E1000130E300E40086
:100B300003130A24080053300317CA004530CB00C2
:100B40004C30CC004530CD004330CE005430CF0087
:100B50002030D0004430D1004930D2004630D3009C
:100B6000D4004930D5004330D6005530D7004C3042
:100B7000D8005430D9005930DA00DB01DC0103130E
:100B800045220A300317DF00E0000130E2004A305E
:100B9000E1000130E300E40003130A2471080317A5
:100BA000DC0003134625A61526088316870083124A
:100BB000871DEF2D7108013C031CE42DF10A71081B
:100BC0000317DC000313462502300317DC009630C0
:100BD000DD00031338230317DC0BE72D0313261660
:100BE0002608831687008312071E0A2EF1080319B0
:100BF000FF2DF10371080317DC00031346250230B3
:100C00000317DC009630DD00031338230317DC0BD9
:100C1000022E0313A6162608831687008312871E4A
:100C2000352E710803191B2E013A0319202E033AA1
:100C30000319252E292EFC3072050338F200292EC7
:100C4000FC3072050238F200292EFC3072050138A2
:100C5000F20002300317DC009630DD000313382366
:100C60000317DC0B2C2E372E0313D32D031703137E
:100C70008A150A129E2A03174E085002DC005C08EF
:100C8000DC1F442E5C08003CD7004F085102DC00FA
:100C90005C08DC1F4D2E5C08003CD8004E08D300D9
:100CA0004F08D4004E0850020318592EFF30D500CB
:100CB0005B2E0130D5004F0851020318622EFF3021
:100CC000D600642E0130D6005808803AF700570845
:100CD000803A770203196E2E0318DC2E0230831639
:100CE00092008312580883169300831203131C2268
:100CF000031757087802FA01F700F71BFA03D90027
:100D00007A08DA00DB01D71BDB2E5B085702031CD5
:100D1000DB2E530883169200831254088316930027
:100D20008312520883169400831203134D23031772
:100D3000DA1FB22E023083169200831258088316EF
:100D40009300831203131C227808FA01F700F71BA3
:100D5000FA030317D9077A0803187A0FDA07550838
:100D6000D307D92E023083169200831258088316B7
:100D70009300831203131C2278080317DC0002304F
:100D8000831692008312570883169300831203136D
:100D90001C22780803175C02FA01F700F71BFA031C
:100DA000D9077A0803187A0FDA075508D3075608C7
:100DB000D407DB0A832E492F023083169200831258
:100DC000570883169300831203131C220317580835
:100DD0007802FA01F700F71BFA03D9007A08DA0063
:100DE000DB01D81B492F5B085802031C492F53080D
:100DF00083169200831254088316930083125208BC
:100E000083169400831203134D230317DA1F202F38
:100E100002308316920083125708831693008312C0
:100E200003131C227808FA01F700F71BFA030317D3
:100E3000D9077A0803187A0FDA075608D407472F1C
:100E40000230831692008312570883169300831290
:100E500003131C2278080317DC000230831692006B
:100E60008312580883169300831203131C227808F8
:100E700003175C02FA01F700F71BFA03D9077A0897
:100E800003187A0FDA075508D3075608D407DB0A88
:100E9000F12E031308000317CA014A080A3C031C79
:100EA0006A2F4A08831692000630930083120313B8
:100EB0001C2278080317CB004B08CE00CF014B084B
:100EC000D0003C30D1000130D20003133B26031781
:100ED000CA0A4D2FCC014C080A3C031C882F4C0831
:100EE0008316920006309300831203131C227808A5
:100EF0000317CD00CE014D08CF003C30D0004D0887
:100F0000D1000130D20003133B260317CC0A6B2F0C
:100F10000313080041300317CA004A087C3C031C35
:100F2000A62FCB014B08133C031CA42F4A088316A1
:100F3000920083124B0883169300940183120313CB
:100F40004D230317CB0A922FCA0A8D2F4130DF00A1
:100F5000E001E201E030E1000130E300E4000313CE
:100F60000A2441300317DF000A30E0000130E200BC
:100F70001030E1000130E300E40003130A2408000C
:100F8000F801F901F701FA0103175208031DCB2FED
:100F900051080319E52F1030D3000310CF0DD00DE9
:100FA000F70DFA0D52087A02031DD82F5108770267
:100FB000031CE12F5108F702031CFA035208FA023E
:100FC0000314F80DF90DD30BCD2F031308000317ED
:100FD0004B08F8014A020318F02F4A08F700FC2FCB
:100FE000F7010830CC00CA0DF70D4B087702031843
:0C0FF000F700F80DCC0BF32F03130800E2
:1010000025080317CF00031324080317CE0003138A
:1010100023080317CD00031322080317CC00413027
:10102000D300C630D2004E30D1006D30D000203019
:10103000D800D401D501D601D7014F08FA004E08D7
:10104000F9004D08F8004C08F7000310771C36280B
:101050005008D40751080318510FD5075208031838
:10106000520FD60753080318530FD707D70CD60CC7
:10107000D50CD40CFA0CF90CF80CF70CD80B25286D
:101080007A08CF007908CE007808CD007708CC0028
:1010900039304C070313A20003174D080313A300B4
:1010A000303003183130A30703174E080313A40090
:1010B000003003180130A40703174F080313A500DD
:1010C000003003180130A5072408F7002508F800B0
:1010D000F901FA0125080317CE007708CD004E0864
:1010E000D0004D08CF007F30D200FF30D1008A11F0
:1010F0000313C0278A157708F8007A08F90008005A
:101100000317CC1B9028CC1B89284C08093C031CD6
:101110009028CD1B9028CD1B91284D08093C031C1D
:10112000D2284C0883169200063093008A1183124D
:1011300003131C228A15013078070317CF004D08CE
:1011400083169200063093008A11831203131C2227
:101150008A15013078070317D000D1015108043CEB
:10116000031CD228D2015208043C031CD028510889
:101170004F07D30052085007D4005308831692003B
:10118000831254088316930083124E08831694002A
:101190008A11831203134D238A150317D20AB32829
:1011A000D10AAE28031308000317CA01CA08031D99
:1011B0003B290313002079080317CD007808CC00E1
:1011C0004D08D0004C08CF00D2010A30D1008A115E
:1011D0000313C0278A157708E80000207908031751
:1011E000CD007808CC004D08D0004C08CF00D201CB
:1011F0000A30D1008A110313C0278A157708E90045
:1012000001300317CA00CB0103136A0803174B020E
:1012100003183A294B081F3C031C142927304B079D
:101220008400831300081A2920304B02A03E84005A
:101230008313000803136802031D372903174B08A3
:101240001F3C031C292947304B07840083130008E7
:101250002F2920304B02C03E840083130008031363
:101260006902031D37290317CA013A29031303171B
:10127000CB0A0429D628031368080317CC000313EC
:1012800069080317CD000130CE0003138020080049
:101290000530EA00EB010230EC00ED01303083163E
:1012A000E700E80002308312E7000317DC018A112F
:1012B000031345228A1519300317DF001E30E000A2
:1012C0000130E2001A30E1000130E300E4008A114D
:1012D00003130A248A1506300317CA00FA30DD000A
:1012E0008A11031338238A150317CA0B6E298A1132
:1012F000031323258A150317DC018A1103134522E2
:101300008A158A114B278A1508000317DC018A11F8
:10131000031345228A1523300317DF00E000013054
:10132000E2002830E1000130E300E4008A110313F9
:101330000A248A150A300317CA00FA30DD008A1120
:10134000031338238A150317CA0B9D298A11031327
:1013500023258A150317DC018A11031345228A15F8
:101360008A114B278A150530EA00EB010230EC00A8
:10137000ED0130308316E700E80002308312E70009
:101380008A150A12BB2C10300317D000F701FA019E
:10139000CD0CCC0C031CD2294E08F7070318FA0A0F
:1013A0004F08FA07FA0CF70CF90CF80CD00BC82907
:1013B00003138A150A120E2D03081F398300FF300C
:1013C000A6000230E7004030EA00EB010230EC00FA
:1013D000ED01EE017014F10183161F149F141F1507
:1013E0009F1107309C0083138312A001A101533089
:1013F0008316E0006330E1006F30E2007230E300FA
:101400006530E4003A30E5002030E6003030E70097
:10141000E800E90142308312031790006530910023
:1014200073309200743093003A309400203095006D
:10143000303096009700980147309A0041309B0069
:101440004D309C0045309D004F309E0056309F002F
:101450004530A0005230A1002030A2002130A3006E
:10146000A400A500A6015930A8004F30A9005530AE
:10147000AA002030AB005730AC004F30AD004E30EA
:10148000AE002130AF00B0015330B1004E30B20099
:101490004130B3004B30B4004530B5002030B600C9
:1014A0004730B7004130B8004D30B9004530BA0080
:1014B000BB0183160313EB004130EC005330ED0009
:1014C0005930EE00EF014D3083120317BC00453058
:1014D000BD004430BE004930BF005530C0004D3023
:1014E000C100C2014830C3004130C4005230C500C1
:1014F0004430C600C7010130CA008A110313BE2A56
:101500008A150317DC018A11031345228A1502305C
:101510000317CA00FA30DD008A11031338238A1535
:101520000317CA0B8A2A701CA12A8A110313032DE0
:101530008A158A1123258A158A119B2D8A15701008
:101540000317DC018A11031345228A158A114B27E0
:101550008A158A118A278A15D420EF016A086F023A
:101560000318082B6F081F3C031CBE2A27306F0787
:10157000840083136F086B028000C62A20306F023C
:10158000A03E840083136F086B0280006F081F3C2D
:10159000031CD22A47306F07840083136C08800035
:1015A0006C08D92A20306F02C03E840083136C0877
:1015B00080006F081F3C031CE32A27306F0784005C
:1015C00083130008E92A20306F02A03E84008313B1
:1015D00000080317CA0003136F081F3C031CF62AF8
:1015E00047306F07840083130008FC2A20306F0205
:1015F000C03E8400831300080317CB004A08CC00C8
:101600004B08CD000130CE0003138020EF0AAE2A34
:10161000A6152608831687008312871D142BE7085A
:101620000319142B0330E7002615260883168700BC
:101630008312071D202B670B1E2B202B0230E70087
:10164000A6142608831687008312871C2D2B670893
:10165000023C03192D2B0130E700261626088316BD
:1016600087008312071E382B6708033C031DE70120
:10167000A6162608831687008312871E432B48214F
:101680000317932A03136708FC3E03187A2B043EC2
:10169000292DEB08031D512B48210317932A532BA7
:1016A0000313EB03031703137A2BEC08031D5D2BC5
:1016B00048210317932A5F2B0313EC03031703132B
:1016C0007A2B6C08093C031D6A2B48210317932AC7
:1016D0006C2B0313EC0A031703137A2B6B08093CDA
:1016E000031D772B48210317932A792B0313EB0A49
:1016F0000317031327080317C8000313470803172A
:10170000C9000313EF0101306A026F0203183C2C79
:101710006F081F3C031CB72B27306F07F800FA0136
:101720000318FA0A78080317CA007A08CB000130B8
:1017300003136F071F3C031CA42B01306F07273EC8
:10174000840083130008AB2B01306F07E03EA03EFE
:101750008400831300080317CC004A088400831315
:101760004B1883174C0880004C08E02B03132030E3
:101770006F02A03EF800FA010318FA0A780803176E
:10178000CC007A08CD00013003136F071F3C031C07
:10179000D02B01306F07273E840083130008D72B1E
:1017A00001306F07E03EA03E84008313000803175A
:1017B000CA004C08840083134D1883174A08800020
:1017C00003136F081F3C031C102C47306F07F800F1
:1017D000FA010318FA0A78080317CA007A08CB003E
:1017E000013003136F071F3C031CFD2B01306F07F3
:1017F000473E840083130008042C01306F07E03E4D
:10180000C03E8400831300080317CC004A088400FC
:1018100083134B1883174C0880004C08392C031392
:1018200020306F02C03EF800FA010318FA0A780867
:101830000317CC007A08CD00013003136F071F3C5B
:10184000031C292C01306F07473E840083130008D6
:10185000302C01306F07E03EC03E84008313000847
:101860000317CA004C08840083134D1883174A08D5
:1018700080000313EF0A832B01306A021F3C031C14
:101880004A2C01306A02273E840083136B088000D3
:101890006B08522C01306A02E03EA03E84008313A4
:1018A0006B08800001306A021F3C031C602C013071
:1018B0006A02473E840083136C0880006C08682C21
:1018C00001306A02E03EC03E840083136C08800051
:1018D000EF0101306A026F0203189A2C6F081F3C57
:1018E000031C782C27306F078400831300087E2C9C
:1018F00020306F02A03E8400831300086B02031D9A
:10190000982C6F081F3C031C8B2C47306F078400FA
:1019100083130008912C20306F02C03E8400831393
:1019200000086C02031D982C48210317932A031307
:10193000EF0A692C6B080317CC0003136C0803171C
:10194000CD000130CE000313802003174808CC00DF
:101950004908CD00CE010313802068086B02031DE7
:10196000012D69086C02031D012DEA0A6A083F3C3B
:101970000318BE2C85290317932A0313D420ED0ADC
:101980006D080317CA000A30CB008A110313E7273A
:101990008A157808303E8316E70083126D08031716
:1019A000CA000A30CB008A110313E7278A1577088B
:1019B000303E8316E80083126D086E020318FE2C79
:1019C0006D08EE006E080317CA000A30CB008A11BA
:1019D0000313E7278A157808303E0317970003138F
:1019E0006E080317CA000A30CB008A110313E727D9
:1019F0008A157708303E0317980003138A118A2747
:101A00008A15720803390317CB00CD014B08CC00AF
:101A10000130CF002C30CE000313C32979080317FF
:101A2000CB007808CA004B08CC00CC0ACC030319C1
:101A3000212DFF30DD008A11031338238A15031787
:101A4000162D4A08DD008A11031338238A15082B46
:101A500063000A148A100A158207492B552B612B43
:021A60006E2BEB
:02400E00723FFF
:00000001FF
;PIC16F877A
;CRC=8506  CREATED="30-May-25 16:58"
